{
  "_format": "hh-sol-artifact-1",
  "contractName": "DynamicNFT",
  "sourceName": "contracts/DynamicNFT.sol",
  "abi": [
    {
      "inputs": [],
      "stateMutability": "nonpayable",
      "type": "constructor"
    },
    {
      "inputs": [
        {
          "internalType": "address",
          "name": "sender",
          "type": "address"
        },
        {
          "internalType": "uint256",
          "name": "tokenId",
          "type": "uint256"
        },
        {
          "internalType": "address",
          "name": "owner",
          "type": "address"
        }
      ],
      "name": "ERC721IncorrectOwner",
      "type": "error"
    },
    {
      "inputs": [
        {
          "internalType": "address",
          "name": "operator",
          "type": "address"
        },
        {
          "internalType": "uint256",
          "name": "tokenId",
          "type": "uint256"
        }
      ],
      "name": "ERC721InsufficientApproval",
      "type": "error"
    },
    {
      "inputs": [
        {
          "internalType": "address",
          "name": "approver",
          "type": "address"
        }
      ],
      "name": "ERC721InvalidApprover",
      "type": "error"
    },
    {
      "inputs": [
        {
          "internalType": "address",
          "name": "operator",
          "type": "address"
        }
      ],
      "name": "ERC721InvalidOperator",
      "type": "error"
    },
    {
      "inputs": [
        {
          "internalType": "address",
          "name": "owner",
          "type": "address"
        }
      ],
      "name": "ERC721InvalidOwner",
      "type": "error"
    },
    {
      "inputs": [
        {
          "internalType": "address",
          "name": "receiver",
          "type": "address"
        }
      ],
      "name": "ERC721InvalidReceiver",
      "type": "error"
    },
    {
      "inputs": [
        {
          "internalType": "address",
          "name": "sender",
          "type": "address"
        }
      ],
      "name": "ERC721InvalidSender",
      "type": "error"
    },
    {
      "inputs": [
        {
          "internalType": "uint256",
          "name": "tokenId",
          "type": "uint256"
        }
      ],
      "name": "ERC721NonexistentToken",
      "type": "error"
    },
    {
      "inputs": [
        {
          "internalType": "address",
          "name": "owner",
          "type": "address"
        }
      ],
      "name": "OwnableInvalidOwner",
      "type": "error"
    },
    {
      "inputs": [
        {
          "internalType": "address",
          "name": "account",
          "type": "address"
        }
      ],
      "name": "OwnableUnauthorizedAccount",
      "type": "error"
    },
    {
      "anonymous": false,
      "inputs": [
        {
          "indexed": true,
          "internalType": "address",
          "name": "owner",
          "type": "address"
        },
        {
          "indexed": true,
          "internalType": "address",
          "name": "approved",
          "type": "address"
        },
        {
          "indexed": true,
          "internalType": "uint256",
          "name": "tokenId",
          "type": "uint256"
        }
      ],
      "name": "Approval",
      "type": "event"
    },
    {
      "anonymous": false,
      "inputs": [
        {
          "indexed": true,
          "internalType": "address",
          "name": "owner",
          "type": "address"
        },
        {
          "indexed": true,
          "internalType": "address",
          "name": "operator",
          "type": "address"
        },
        {
          "indexed": false,
          "internalType": "bool",
          "name": "approved",
          "type": "bool"
        }
      ],
      "name": "ApprovalForAll",
      "type": "event"
    },
    {
      "anonymous": false,
      "inputs": [
        {
          "indexed": false,
          "internalType": "uint256",
          "name": "_fromTokenId",
          "type": "uint256"
        },
        {
          "indexed": false,
          "internalType": "uint256",
          "name": "_toTokenId",
          "type": "uint256"
        }
      ],
      "name": "BatchMetadataUpdate",
      "type": "event"
    },
    {
      "anonymous": false,
      "inputs": [
        {
          "indexed": false,
          "internalType": "uint256",
          "name": "_tokenId",
          "type": "uint256"
        }
      ],
      "name": "MetadataUpdate",
      "type": "event"
    },
    {
      "anonymous": false,
      "inputs": [
        {
          "indexed": true,
          "internalType": "uint256",
          "name": "tokenId",
          "type": "uint256"
        },
        {
          "indexed": true,
          "internalType": "address",
          "name": "owner",
          "type": "address"
        },
        {
          "indexed": false,
          "internalType": "uint256",
          "name": "stateId",
          "type": "uint256"
        },
        {
          "indexed": false,
          "internalType": "string",
          "name": "updatedUri",
          "type": "string"
        }
      ],
      "name": "NewTokenMinted",
      "type": "event"
    },
    {
      "anonymous": false,
      "inputs": [
        {
          "indexed": true,
          "internalType": "address",
          "name": "previousOwner",
          "type": "address"
        },
        {
          "indexed": true,
          "internalType": "address",
          "name": "newOwner",
          "type": "address"
        }
      ],
      "name": "OwnershipTransferred",
      "type": "event"
    },
    {
      "anonymous": false,
      "inputs": [
        {
          "indexed": true,
          "internalType": "uint256",
          "name": "tokenId",
          "type": "uint256"
        },
        {
          "indexed": true,
          "internalType": "address",
          "name": "owner",
          "type": "address"
        },
        {
          "indexed": false,
          "internalType": "uint256",
          "name": "maxScore",
          "type": "uint256"
        },
        {
          "indexed": false,
          "internalType": "uint256",
          "name": "stateId",
          "type": "uint256"
        },
        {
          "indexed": false,
          "internalType": "uint256",
          "name": "totalPlayTime",
          "type": "uint256"
        }
      ],
      "name": "StatsUpdated",
      "type": "event"
    },
    {
      "anonymous": false,
      "inputs": [
        {
          "indexed": true,
          "internalType": "address",
          "name": "from",
          "type": "address"
        },
        {
          "indexed": true,
          "internalType": "address",
          "name": "to",
          "type": "address"
        },
        {
          "indexed": true,
          "internalType": "uint256",
          "name": "tokenId",
          "type": "uint256"
        }
      ],
      "name": "Transfer",
      "type": "event"
    },
    {
      "inputs": [
        {
          "internalType": "address",
          "name": "to",
          "type": "address"
        },
        {
          "internalType": "uint256",
          "name": "tokenId",
          "type": "uint256"
        }
      ],
      "name": "approve",
      "outputs": [],
      "stateMutability": "nonpayable",
      "type": "function"
    },
    {
      "inputs": [
        {
          "internalType": "address",
          "name": "owner",
          "type": "address"
        }
      ],
      "name": "balanceOf",
      "outputs": [
        {
          "internalType": "uint256",
          "name": "",
          "type": "uint256"
        }
      ],
      "stateMutability": "view",
      "type": "function"
    },
    {
      "inputs": [
        {
          "internalType": "uint256",
          "name": "",
          "type": "uint256"
        }
      ],
      "name": "dnftStats",
      "outputs": [
        {
          "internalType": "uint256",
          "name": "maxScore",
          "type": "uint256"
        },
        {
          "internalType": "uint256",
          "name": "stateId",
          "type": "uint256"
        },
        {
          "internalType": "uint256",
          "name": "playTime",
          "type": "uint256"
        }
      ],
      "stateMutability": "view",
      "type": "function"
    },
    {
      "inputs": [
        {
          "internalType": "uint256",
          "name": "tokenId",
          "type": "uint256"
        }
      ],
      "name": "getApproved",
      "outputs": [
        {
          "internalType": "address",
          "name": "",
          "type": "address"
        }
      ],
      "stateMutability": "view",
      "type": "function"
    },
    {
      "inputs": [
        {
          "internalType": "uint256",
          "name": "tokenId",
          "type": "uint256"
        }
      ],
      "name": "getStats",
      "outputs": [
        {
          "components": [
            {
              "internalType": "uint256",
              "name": "maxScore",
              "type": "uint256"
            },
            {
              "internalType": "uint256",
              "name": "stateId",
              "type": "uint256"
            },
            {
              "internalType": "uint256",
              "name": "playTime",
              "type": "uint256"
            }
          ],
          "internalType": "struct DynamicNFT.PlayerStats",
          "name": "",
          "type": "tuple"
        }
      ],
      "stateMutability": "view",
      "type": "function"
    },
    {
      "inputs": [
        {
          "internalType": "address",
          "name": "owner",
          "type": "address"
        },
        {
          "internalType": "address",
          "name": "operator",
          "type": "address"
        }
      ],
      "name": "isApprovedForAll",
      "outputs": [
        {
          "internalType": "bool",
          "name": "",
          "type": "bool"
        }
      ],
      "stateMutability": "view",
      "type": "function"
    },
    {
      "inputs": [
        {
          "internalType": "address",
          "name": "to",
          "type": "address"
        },
        {
          "internalType": "uint256",
          "name": "score",
          "type": "uint256"
        }
      ],
      "name": "mint",
      "outputs": [
        {
          "internalType": "uint256",
          "name": "",
          "type": "uint256"
        }
      ],
      "stateMutability": "nonpayable",
      "type": "function"
    },
    {
      "inputs": [],
      "name": "name",
      "outputs": [
        {
          "internalType": "string",
          "name": "",
          "type": "string"
        }
      ],
      "stateMutability": "view",
      "type": "function"
    },
    {
      "inputs": [],
      "name": "nextTokenId",
      "outputs": [
        {
          "internalType": "uint256",
          "name": "",
          "type": "uint256"
        }
      ],
      "stateMutability": "view",
      "type": "function"
    },
    {
      "inputs": [],
      "name": "owner",
      "outputs": [
        {
          "internalType": "address",
          "name": "",
          "type": "address"
        }
      ],
      "stateMutability": "view",
      "type": "function"
    },
    {
      "inputs": [
        {
          "internalType": "uint256",
          "name": "tokenId",
          "type": "uint256"
        }
      ],
      "name": "ownerOf",
      "outputs": [
        {
          "internalType": "address",
          "name": "",
          "type": "address"
        }
      ],
      "stateMutability": "view",
      "type": "function"
    },
    {
      "inputs": [],
      "name": "renounceOwnership",
      "outputs": [],
      "stateMutability": "nonpayable",
      "type": "function"
    },
    {
      "inputs": [
        {
          "internalType": "address",
          "name": "from",
          "type": "address"
        },
        {
          "internalType": "address",
          "name": "to",
          "type": "address"
        },
        {
          "internalType": "uint256",
          "name": "tokenId",
          "type": "uint256"
        }
      ],
      "name": "safeTransferFrom",
      "outputs": [],
      "stateMutability": "nonpayable",
      "type": "function"
    },
    {
      "inputs": [
        {
          "internalType": "address",
          "name": "from",
          "type": "address"
        },
        {
          "internalType": "address",
          "name": "to",
          "type": "address"
        },
        {
          "internalType": "uint256",
          "name": "tokenId",
          "type": "uint256"
        },
        {
          "internalType": "bytes",
          "name": "data",
          "type": "bytes"
        }
      ],
      "name": "safeTransferFrom",
      "outputs": [],
      "stateMutability": "nonpayable",
      "type": "function"
    },
    {
      "inputs": [
        {
          "internalType": "address",
          "name": "operator",
          "type": "address"
        },
        {
          "internalType": "bool",
          "name": "approved",
          "type": "bool"
        }
      ],
      "name": "setApprovalForAll",
      "outputs": [],
      "stateMutability": "nonpayable",
      "type": "function"
    },
    {
      "inputs": [
        {
          "internalType": "uint256",
          "name": "stateId",
          "type": "uint256"
        },
        {
          "internalType": "string",
          "name": "fullUri",
          "type": "string"
        }
      ],
      "name": "setStateFullUri",
      "outputs": [],
      "stateMutability": "nonpayable",
      "type": "function"
    },
    {
      "inputs": [
        {
          "internalType": "uint256",
          "name": "",
          "type": "uint256"
        }
      ],
      "name": "stateFullUris",
      "outputs": [
        {
          "internalType": "string",
          "name": "",
          "type": "string"
        }
      ],
      "stateMutability": "view",
      "type": "function"
    },
    {
      "inputs": [
        {
          "internalType": "bytes4",
          "name": "interfaceId",
          "type": "bytes4"
        }
      ],
      "name": "supportsInterface",
      "outputs": [
        {
          "internalType": "bool",
          "name": "",
          "type": "bool"
        }
      ],
      "stateMutability": "view",
      "type": "function"
    },
    {
      "inputs": [],
      "name": "symbol",
      "outputs": [
        {
          "internalType": "string",
          "name": "",
          "type": "string"
        }
      ],
      "stateMutability": "view",
      "type": "function"
    },
    {
      "inputs": [
        {
          "internalType": "uint256",
          "name": "tokenId",
          "type": "uint256"
        }
      ],
      "name": "tokenURI",
      "outputs": [
        {
          "internalType": "string",
          "name": "",
          "type": "string"
        }
      ],
      "stateMutability": "view",
      "type": "function"
    },
    {
      "inputs": [
        {
          "internalType": "address",
          "name": "from",
          "type": "address"
        },
        {
          "internalType": "address",
          "name": "to",
          "type": "address"
        },
        {
          "internalType": "uint256",
          "name": "tokenId",
          "type": "uint256"
        }
      ],
      "name": "transferFrom",
      "outputs": [],
      "stateMutability": "nonpayable",
      "type": "function"
    },
    {
      "inputs": [
        {
          "internalType": "address",
          "name": "newOwner",
          "type": "address"
        }
      ],
      "name": "transferOwnership",
      "outputs": [],
      "stateMutability": "nonpayable",
      "type": "function"
    },
    {
      "inputs": [
        {
          "internalType": "uint256",
          "name": "tokenId",
          "type": "uint256"
        },
        {
          "internalType": "uint256",
          "name": "score",
          "type": "uint256"
        },
        {
          "internalType": "uint256",
          "name": "newState",
          "type": "uint256"
        },
        {
          "internalType": "uint256",
          "name": "playTime",
          "type": "uint256"
        }
      ],
      "name": "updateStats",
      "outputs": [],
      "stateMutability": "nonpayable",
      "type": "function"
    },
    {
      "inputs": [
        {
          "internalType": "uint256",
          "name": "tokenId",
          "type": "uint256"
        },
        {
          "internalType": "uint256",
          "name": "newStateId",
          "type": "uint256"
        }
      ],
      "name": "updateVisualState",
      "outputs": [],
      "stateMutability": "nonpayable",
      "type": "function"
    }
  ],
  "bytecode": "0x608060405234801561001057600080fd5b50336040518060400160405280600a81526020017f44796e616d69634e4654000000000000000000000000000000000000000000008152506040518060400160405280600481526020017f444e465400000000000000000000000000000000000000000000000000000000815250816000908161008d91906104eb565b50806001908161009d91906104eb565b505050600073ffffffffffffffffffffffffffffffffffffffff168173ffffffffffffffffffffffffffffffffffffffff16036101125760006040517f1e4fbdf700000000000000000000000000000000000000000000000000000000815260040161010991906105fe565b60405180910390fd5b610121816101d560201b60201c565b506040518060a0016040528060788152602001613708607891396009600060018152602001908152602001600020908161015b91906104eb565b506040518060a0016040528060788152602001613780607891396009600060028152602001908152602001600020908161019591906104eb565b506040518060a00160405280607881526020016137f860789139600960006003815260200190815260200160002090816101cf91906104eb565b50610619565b6000600760009054906101000a900473ffffffffffffffffffffffffffffffffffffffff16905081600760006101000a81548173ffffffffffffffffffffffffffffffffffffffff021916908373ffffffffffffffffffffffffffffffffffffffff1602179055508173ffffffffffffffffffffffffffffffffffffffff168173ffffffffffffffffffffffffffffffffffffffff167f8be0079c531659141344cd1fd0a4f28419497f9722a3daafe3b4186f6b6457e060405160405180910390a35050565b600081519050919050565b7f4e487b7100000000000000000000000000000000000000000000000000000000600052604160045260246000fd5b7f4e487b7100000000000000000000000000000000000000000000000000000000600052602260045260246000fd5b6000600282049050600182168061031c57607f821691505b60208210810361032f5761032e6102d5565b5b50919050565b60008190508160005260206000209050919050565b60006020601f8301049050919050565b600082821b905092915050565b6000600883026103977fffffffffffffffffffffffffffffffffffffffffffffffffffffffffffffffff8261035a565b6103a1868361035a565b95508019841693508086168417925050509392505050565b6000819050919050565b6000819050919050565b60006103e86103e36103de846103b9565b6103c3565b6103b9565b9050919050565b6000819050919050565b610402836103cd565b61041661040e826103ef565b848454610367565b825550505050565b600090565b61042b61041e565b6104368184846103f9565b505050565b5b8181101561045a5761044f600082610423565b60018101905061043c565b5050565b601f82111561049f5761047081610335565b6104798461034a565b81016020851015610488578190505b61049c6104948561034a565b83018261043b565b50505b505050565b600082821c905092915050565b60006104c2600019846008026104a4565b1980831691505092915050565b60006104db83836104b1565b9150826002028217905092915050565b6104f48261029b565b67ffffffffffffffff81111561050d5761050c6102a6565b5b6105178254610304565b61052282828561045e565b600060209050601f8311600181146105555760008415610543578287015190505b61054d85826104cf565b8655506105b5565b601f19841661056386610335565b60005b8281101561058b57848901518255600182019150602085019450602081019050610566565b868310156105a857848901516105a4601f8916826104b1565b8355505b6001600288020188555050505b505050505050565b600073ffffffffffffffffffffffffffffffffffffffff82169050919050565b60006105e8826105bd565b9050919050565b6105f8816105dd565b82525050565b600060208201905061061360008301846105ef565b92915050565b6130e0806106286000396000f3fe608060405234801561001057600080fd5b50600436106101585760003560e01c806370a08231116100c3578063a22cb4651161007c578063a22cb465146103d9578063b88d4fde146103f5578063c87b56dd14610411578063df01136714610441578063e985e9c514610471578063f2fde38b146104a157610158565b806370a0823114610315578063715018a61461034557806375794a3c1461034f5780637b3039651461036d5780638da5cb5b1461039d57806395d89b41146103bb57610158565b806323b872dd1161011557806323b872dd1461024557806326dbbcc3146102615780632dfb7c2a1461027d57806340c10f191461029957806342842e0e146102c95780636352211e146102e557610158565b806301ffc9a71461015d57806306fdde031461018d578063081812fc146101ab578063095ea7b3146101db57806316cb4cf5146101f75780631c335e2f14610229575b600080fd5b61017760048036038101906101729190612246565b6104bd565b604051610184919061228e565b60405180910390f35b61019561051e565b6040516101a29190612339565b60405180910390f35b6101c560048036038101906101c09190612391565b6105b0565b6040516101d291906123ff565b60405180910390f35b6101f560048036038101906101f09190612446565b6105cc565b005b610211600480360381019061020c9190612391565b6105e2565b60405161022093929190612495565b60405180910390f35b610243600480360381019061023e9190612601565b61060c565b005b61025f600480360381019061025a919061265d565b610639565b005b61027b600480360381019061027691906126b0565b61073b565b005b61029760048036038101906102929190612717565b610963565b005b6102b360048036038101906102ae9190612446565b610b4e565b6040516102c09190612757565b60405180910390f35b6102e360048036038101906102de919061265d565b610c75565b005b6102ff60048036038101906102fa9190612391565b610c95565b60405161030c91906123ff565b60405180910390f35b61032f600480360381019061032a9190612772565b610ca7565b60405161033c9190612757565b60405180910390f35b61034d610d61565b005b610357610d75565b6040516103649190612757565b60405180910390f35b61038760048036038101906103829190612391565b610d7b565b60405161039491906127f0565b60405180910390f35b6103a5610dc6565b6040516103b291906123ff565b60405180910390f35b6103c3610df0565b6040516103d09190612339565b60405180910390f35b6103f360048036038101906103ee9190612837565b610e82565b005b61040f600480360381019061040a9190612918565b610e98565b005b61042b60048036038101906104269190612391565b610ebd565b6040516104389190612339565b60405180910390f35b61045b60048036038101906104569190612391565b610fd0565b6040516104689190612339565b60405180910390f35b61048b6004803603810190610486919061299b565b611070565b604051610498919061228e565b60405180910390f35b6104bb60048036038101906104b69190612772565b611104565b005b6000634906490660e01b7bffffffffffffffffffffffffffffffffffffffffffffffffffffffff1916827bffffffffffffffffffffffffffffffffffffffffffffffffffffffff1916148061051757506105168261118a565b5b9050919050565b60606000805461052d90612a0a565b80601f016020809104026020016040519081016040528092919081815260200182805461055990612a0a565b80156105a65780601f1061057b576101008083540402835291602001916105a6565b820191906000526020600020905b81548152906001019060200180831161058957829003601f168201915b5050505050905090565b60006105bb8261126c565b506105c5826112f4565b9050919050565b6105de82826105d9611331565b611339565b5050565b60086020528060005260406000206000915090508060000154908060010154908060020154905083565b61061461134b565b806009600084815260200190815260200160002090816106349190612be7565b505050565b600073ffffffffffffffffffffffffffffffffffffffff168273ffffffffffffffffffffffffffffffffffffffff16036106ab5760006040517f64a0ae920000000000000000000000000000000000000000000000000000000081526004016106a291906123ff565b60405180910390fd5b60006106bf83836106ba611331565b6113d2565b90508373ffffffffffffffffffffffffffffffffffffffff168173ffffffffffffffffffffffffffffffffffffffff1614610735578382826040517f64283d7b00000000000000000000000000000000000000000000000000000000815260040161072c93929190612cb9565b60405180910390fd5b50505050565b3373ffffffffffffffffffffffffffffffffffffffff1661075b85610c95565b73ffffffffffffffffffffffffffffffffffffffff16146107b1576040517f08c379a00000000000000000000000000000000000000000000000000000000081526004016107a890612d3c565b60405180910390fd5b600060086000868152602001908152602001600020905080600001548411156107de578381600001819055505b828160010154146108e257828160010181905550600060096000858152602001908152602001600020805461081290612a0a565b80601f016020809104026020016040519081016040528092919081815260200182805461083e90612a0a565b801561088b5780601f106108605761010080835404028352916020019161088b565b820191906000526020600020905b81548152906001019060200180831161086e57829003601f168201915b5050505050905060008151116108d6576040517f08c379a00000000000000000000000000000000000000000000000000000000081526004016108cd90612da8565b60405180910390fd5b6108e086826115ec565b505b818160020160008282546108f69190612df7565b925050819055503373ffffffffffffffffffffffffffffffffffffffff16857f5fc71ebad6e6dd7b877691d6c01768232bd850b648b45eece8acd170d27ea52283600001548460010154856002015460405161095493929190612495565b60405180910390a35050505050565b3373ffffffffffffffffffffffffffffffffffffffff1661098383610c95565b73ffffffffffffffffffffffffffffffffffffffff16146109d9576040517f08c379a00000000000000000000000000000000000000000000000000000000081526004016109d090612d3c565b60405180910390fd5b60006009600083815260200190815260200160002080546109f990612a0a565b80601f0160208091040260200160405190810160405280929190818152602001828054610a2590612a0a565b8015610a725780601f10610a4757610100808354040283529160200191610a72565b820191906000526020600020905b815481529060010190602001808311610a5557829003601f168201915b505050505090506000815111610abd576040517f08c379a0000000000000000000000000000000000000000000000000000000008152600401610ab490612e77565b60405180910390fd5b816008600085815260200190815260200160002060010181905550610ae283826115ec565b3373ffffffffffffffffffffffffffffffffffffffff16837f4f0651d2c61e7aa7f0e6bb8a03ac1ff93349767be2e64c27cd3143c040413195600860008781526020019081526020016000206001015484604051610b41929190612e97565b60405180910390a3505050565b600080600a6000815480929190610b6490612ec7565b919050559050610b748482611648565b604051806060016040528084815260200160018152602001600081525060086000838152602001908152602001600020600082015181600001556020820151816001015560408201518160020155905050610c6b8160096000600181526020019081526020016000208054610be890612a0a565b80601f0160208091040260200160405190810160405280929190818152602001828054610c1490612a0a565b8015610c615780601f10610c3657610100808354040283529160200191610c61565b820191906000526020600020905b815481529060010190602001808311610c4457829003601f168201915b50505050506115ec565b8091505092915050565b610c9083838360405180602001604052806000815250610e98565b505050565b6000610ca08261126c565b9050919050565b60008073ffffffffffffffffffffffffffffffffffffffff168273ffffffffffffffffffffffffffffffffffffffff1603610d1a5760006040517f89c62b64000000000000000000000000000000000000000000000000000000008152600401610d1191906123ff565b60405180910390fd5b600360008373ffffffffffffffffffffffffffffffffffffffff1673ffffffffffffffffffffffffffffffffffffffff168152602001908152602001600020549050919050565b610d6961134b565b610d736000611741565b565b600a5481565b610d836121b9565b6008600083815260200190815260200160002060405180606001604052908160008201548152602001600182015481526020016002820154815250509050919050565b6000600760009054906101000a900473ffffffffffffffffffffffffffffffffffffffff16905090565b606060018054610dff90612a0a565b80601f0160208091040260200160405190810160405280929190818152602001828054610e2b90612a0a565b8015610e785780601f10610e4d57610100808354040283529160200191610e78565b820191906000526020600020905b815481529060010190602001808311610e5b57829003601f168201915b5050505050905090565b610e94610e8d611331565b8383611807565b5050565b610ea3848484610639565b610eb7610eae611331565b85858585611976565b50505050565b6060610ec88261126c565b506000600660008481526020019081526020016000208054610ee990612a0a565b80601f0160208091040260200160405190810160405280929190818152602001828054610f1590612a0a565b8015610f625780601f10610f3757610100808354040283529160200191610f62565b820191906000526020600020905b815481529060010190602001808311610f4557829003601f168201915b505050505090506000610f73611b27565b90506000815103610f88578192505050610fcb565b600082511115610fbd578082604051602001610fa5929190612f4b565b60405160208183030381529060405292505050610fcb565b610fc684611b3e565b925050505b919050565b60096020528060005260406000206000915090508054610fef90612a0a565b80601f016020809104026020016040519081016040528092919081815260200182805461101b90612a0a565b80156110685780601f1061103d57610100808354040283529160200191611068565b820191906000526020600020905b81548152906001019060200180831161104b57829003601f168201915b505050505081565b6000600560008473ffffffffffffffffffffffffffffffffffffffff1673ffffffffffffffffffffffffffffffffffffffff16815260200190815260200160002060008373ffffffffffffffffffffffffffffffffffffffff1673ffffffffffffffffffffffffffffffffffffffff16815260200190815260200160002060009054906101000a900460ff16905092915050565b61110c61134b565b600073ffffffffffffffffffffffffffffffffffffffff168173ffffffffffffffffffffffffffffffffffffffff160361117e5760006040517f1e4fbdf700000000000000000000000000000000000000000000000000000000815260040161117591906123ff565b60405180910390fd5b61118781611741565b50565b60007f80ac58cd000000000000000000000000000000000000000000000000000000007bffffffffffffffffffffffffffffffffffffffffffffffffffffffff1916827bffffffffffffffffffffffffffffffffffffffffffffffffffffffff1916148061125557507f5b5e139f000000000000000000000000000000000000000000000000000000007bffffffffffffffffffffffffffffffffffffffffffffffffffffffff1916827bffffffffffffffffffffffffffffffffffffffffffffffffffffffff1916145b80611265575061126482611ba7565b5b9050919050565b60008061127883611c11565b9050600073ffffffffffffffffffffffffffffffffffffffff168173ffffffffffffffffffffffffffffffffffffffff16036112eb57826040517f7e2732890000000000000000000000000000000000000000000000000000000081526004016112e29190612757565b60405180910390fd5b80915050919050565b60006004600083815260200190815260200160002060009054906101000a900473ffffffffffffffffffffffffffffffffffffffff169050919050565b600033905090565b6113468383836001611c4e565b505050565b611353611331565b73ffffffffffffffffffffffffffffffffffffffff16611371610dc6565b73ffffffffffffffffffffffffffffffffffffffff16146113d057611394611331565b6040517f118cdaa70000000000000000000000000000000000000000000000000000000081526004016113c791906123ff565b60405180910390fd5b565b6000806113de84611c11565b9050600073ffffffffffffffffffffffffffffffffffffffff168373ffffffffffffffffffffffffffffffffffffffff16146114205761141f818486611e13565b5b600073ffffffffffffffffffffffffffffffffffffffff168173ffffffffffffffffffffffffffffffffffffffff16146114b157611462600085600080611c4e565b6001600360008373ffffffffffffffffffffffffffffffffffffffff1673ffffffffffffffffffffffffffffffffffffffff168152602001908152602001600020600082825403925050819055505b600073ffffffffffffffffffffffffffffffffffffffff168573ffffffffffffffffffffffffffffffffffffffff1614611534576001600360008773ffffffffffffffffffffffffffffffffffffffff1673ffffffffffffffffffffffffffffffffffffffff168152602001908152602001600020600082825401925050819055505b846002600086815260200190815260200160002060006101000a81548173ffffffffffffffffffffffffffffffffffffffff021916908373ffffffffffffffffffffffffffffffffffffffff160217905550838573ffffffffffffffffffffffffffffffffffffffff168273ffffffffffffffffffffffffffffffffffffffff167fddf252ad1be2c89b69c2b068fc378daa952ba7f163c4a11628f55a4df523b3ef60405160405180910390a4809150509392505050565b8060066000848152602001908152602001600020908161160c9190612be7565b507ff8e1a15aba9398e019f0b49df1a4fde98ee17ae345cb5f6b5e2c27f5033e8ce78260405161163c9190612757565b60405180910390a15050565b600073ffffffffffffffffffffffffffffffffffffffff168273ffffffffffffffffffffffffffffffffffffffff16036116ba5760006040517f64a0ae920000000000000000000000000000000000000000000000000000000081526004016116b191906123ff565b60405180910390fd5b60006116c8838360006113d2565b9050600073ffffffffffffffffffffffffffffffffffffffff168173ffffffffffffffffffffffffffffffffffffffff161461173c5760006040517f73c6ac6e00000000000000000000000000000000000000000000000000000000815260040161173391906123ff565b60405180910390fd5b505050565b6000600760009054906101000a900473ffffffffffffffffffffffffffffffffffffffff16905081600760006101000a81548173ffffffffffffffffffffffffffffffffffffffff021916908373ffffffffffffffffffffffffffffffffffffffff1602179055508173ffffffffffffffffffffffffffffffffffffffff168173ffffffffffffffffffffffffffffffffffffffff167f8be0079c531659141344cd1fd0a4f28419497f9722a3daafe3b4186f6b6457e060405160405180910390a35050565b600073ffffffffffffffffffffffffffffffffffffffff168273ffffffffffffffffffffffffffffffffffffffff160361187857816040517f5b08ba1800000000000000000000000000000000000000000000000000000000815260040161186f91906123ff565b60405180910390fd5b80600560008573ffffffffffffffffffffffffffffffffffffffff1673ffffffffffffffffffffffffffffffffffffffff16815260200190815260200160002060008473ffffffffffffffffffffffffffffffffffffffff1673ffffffffffffffffffffffffffffffffffffffff16815260200190815260200160002060006101000a81548160ff0219169083151502179055508173ffffffffffffffffffffffffffffffffffffffff168373ffffffffffffffffffffffffffffffffffffffff167f17307eab39ab6107e8899845ad3d59bd9653f200f220920489ca2b5937696c3183604051611969919061228e565b60405180910390a3505050565b60008373ffffffffffffffffffffffffffffffffffffffff163b1115611b20578273ffffffffffffffffffffffffffffffffffffffff1663150b7a02868685856040518563ffffffff1660e01b81526004016119d59493929190612fc4565b6020604051808303816000875af1925050508015611a1157506040513d601f19601f82011682018060405250810190611a0e9190613025565b60015b611a95573d8060008114611a41576040519150601f19603f3d011682016040523d82523d6000602084013e611a46565b606091505b506000815103611a8d57836040517f64a0ae92000000000000000000000000000000000000000000000000000000008152600401611a8491906123ff565b60405180910390fd5b805181602001fd5b63150b7a0260e01b7bffffffffffffffffffffffffffffffffffffffffffffffffffffffff1916817bffffffffffffffffffffffffffffffffffffffffffffffffffffffff191614611b1e57836040517f64a0ae92000000000000000000000000000000000000000000000000000000008152600401611b1591906123ff565b60405180910390fd5b505b5050505050565b606060405180602001604052806000815250905090565b6060611b498261126c565b506000611b54611b27565b90506000815111611b745760405180602001604052806000815250611b9f565b80611b7e84611ed7565b604051602001611b8f929190612f4b565b6040516020818303038152906040525b915050919050565b60007f01ffc9a7000000000000000000000000000000000000000000000000000000007bffffffffffffffffffffffffffffffffffffffffffffffffffffffff1916827bffffffffffffffffffffffffffffffffffffffffffffffffffffffff1916149050919050565b60006002600083815260200190815260200160002060009054906101000a900473ffffffffffffffffffffffffffffffffffffffff169050919050565b8080611c875750600073ffffffffffffffffffffffffffffffffffffffff168273ffffffffffffffffffffffffffffffffffffffff1614155b15611dbb576000611c978461126c565b9050600073ffffffffffffffffffffffffffffffffffffffff168373ffffffffffffffffffffffffffffffffffffffff1614158015611d0257508273ffffffffffffffffffffffffffffffffffffffff168173ffffffffffffffffffffffffffffffffffffffff1614155b8015611d155750611d138184611070565b155b15611d5757826040517fa9fbf51f000000000000000000000000000000000000000000000000000000008152600401611d4e91906123ff565b60405180910390fd5b8115611db957838573ffffffffffffffffffffffffffffffffffffffff168273ffffffffffffffffffffffffffffffffffffffff167f8c5be1e5ebec7d5bd14f71427d1e84f3dd0314c0f7b2291e5b200ac8c7c3b92560405160405180910390a45b505b836004600085815260200190815260200160002060006101000a81548173ffffffffffffffffffffffffffffffffffffffff021916908373ffffffffffffffffffffffffffffffffffffffff16021790555050505050565b611e1e838383611fa5565b611ed257600073ffffffffffffffffffffffffffffffffffffffff168373ffffffffffffffffffffffffffffffffffffffff1603611e9357806040517f7e273289000000000000000000000000000000000000000000000000000000008152600401611e8a9190612757565b60405180910390fd5b81816040517f177e802f000000000000000000000000000000000000000000000000000000008152600401611ec9929190613052565b60405180910390fd5b505050565b606060006001611ee684612066565b01905060008167ffffffffffffffff811115611f0557611f046124d6565b5b6040519080825280601f01601f191660200182016040528015611f375781602001600182028036833780820191505090505b509050600082602001820190505b600115611f9a578080600190039150507f3031323334353637383961626364656600000000000000000000000000000000600a86061a8153600a8581611f8e57611f8d61307b565b5b04945060008503611f45575b819350505050919050565b60008073ffffffffffffffffffffffffffffffffffffffff168373ffffffffffffffffffffffffffffffffffffffff161415801561205d57508273ffffffffffffffffffffffffffffffffffffffff168473ffffffffffffffffffffffffffffffffffffffff16148061201e575061201d8484611070565b5b8061205c57508273ffffffffffffffffffffffffffffffffffffffff16612044836112f4565b73ffffffffffffffffffffffffffffffffffffffff16145b5b90509392505050565b600080600090507a184f03e93ff9f4daa797ed6e38ed64bf6a1f01000000000000000083106120c4577a184f03e93ff9f4daa797ed6e38ed64bf6a1f01000000000000000083816120ba576120b961307b565b5b0492506040810190505b6d04ee2d6d415b85acef81000000008310612101576d04ee2d6d415b85acef810000000083816120f7576120f661307b565b5b0492506020810190505b662386f26fc10000831061213057662386f26fc1000083816121265761212561307b565b5b0492506010810190505b6305f5e1008310612159576305f5e100838161214f5761214e61307b565b5b0492506008810190505b612710831061217e5761271083816121745761217361307b565b5b0492506004810190505b606483106121a157606483816121975761219661307b565b5b0492506002810190505b600a83106121b0576001810190505b80915050919050565b60405180606001604052806000815260200160008152602001600081525090565b6000604051905090565b600080fd5b600080fd5b60007fffffffff0000000000000000000000000000000000000000000000000000000082169050919050565b612223816121ee565b811461222e57600080fd5b50565b6000813590506122408161221a565b92915050565b60006020828403121561225c5761225b6121e4565b5b600061226a84828501612231565b91505092915050565b60008115159050919050565b61228881612273565b82525050565b60006020820190506122a3600083018461227f565b92915050565b600081519050919050565b600082825260208201905092915050565b60005b838110156122e35780820151818401526020810190506122c8565b60008484015250505050565b6000601f19601f8301169050919050565b600061230b826122a9565b61231581856122b4565b93506123258185602086016122c5565b61232e816122ef565b840191505092915050565b600060208201905081810360008301526123538184612300565b905092915050565b6000819050919050565b61236e8161235b565b811461237957600080fd5b50565b60008135905061238b81612365565b92915050565b6000602082840312156123a7576123a66121e4565b5b60006123b58482850161237c565b91505092915050565b600073ffffffffffffffffffffffffffffffffffffffff82169050919050565b60006123e9826123be565b9050919050565b6123f9816123de565b82525050565b600060208201905061241460008301846123f0565b92915050565b612423816123de565b811461242e57600080fd5b50565b6000813590506124408161241a565b92915050565b6000806040838503121561245d5761245c6121e4565b5b600061246b85828601612431565b925050602061247c8582860161237c565b9150509250929050565b61248f8161235b565b82525050565b60006060820190506124aa6000830186612486565b6124b76020830185612486565b6124c46040830184612486565b949350505050565b600080fd5b600080fd5b7f4e487b7100000000000000000000000000000000000000000000000000000000600052604160045260246000fd5b61250e826122ef565b810181811067ffffffffffffffff8211171561252d5761252c6124d6565b5b80604052505050565b60006125406121da565b905061254c8282612505565b919050565b600067ffffffffffffffff82111561256c5761256b6124d6565b5b612575826122ef565b9050602081019050919050565b82818337600083830152505050565b60006125a461259f84612551565b612536565b9050828152602081018484840111156125c0576125bf6124d1565b5b6125cb848285612582565b509392505050565b600082601f8301126125e8576125e76124cc565b5b81356125f8848260208601612591565b91505092915050565b60008060408385031215612618576126176121e4565b5b60006126268582860161237c565b925050602083013567ffffffffffffffff811115612647576126466121e9565b5b612653858286016125d3565b9150509250929050565b600080600060608486031215612676576126756121e4565b5b600061268486828701612431565b935050602061269586828701612431565b92505060406126a68682870161237c565b9150509250925092565b600080600080608085870312156126ca576126c96121e4565b5b60006126d88782880161237c565b94505060206126e98782880161237c565b93505060406126fa8782880161237c565b925050606061270b8782880161237c565b91505092959194509250565b6000806040838503121561272e5761272d6121e4565b5b600061273c8582860161237c565b925050602061274d8582860161237c565b9150509250929050565b600060208201905061276c6000830184612486565b92915050565b600060208284031215612788576127876121e4565b5b600061279684828501612431565b91505092915050565b6127a88161235b565b82525050565b6060820160008201516127c4600085018261279f565b5060208201516127d7602085018261279f565b5060408201516127ea604085018261279f565b50505050565b600060608201905061280560008301846127ae565b92915050565b61281481612273565b811461281f57600080fd5b50565b6000813590506128318161280b565b92915050565b6000806040838503121561284e5761284d6121e4565b5b600061285c85828601612431565b925050602061286d85828601612822565b9150509250929050565b600067ffffffffffffffff821115612892576128916124d6565b5b61289b826122ef565b9050602081019050919050565b60006128bb6128b684612877565b612536565b9050828152602081018484840111156128d7576128d66124d1565b5b6128e2848285612582565b509392505050565b600082601f8301126128ff576128fe6124cc565b5b813561290f8482602086016128a8565b91505092915050565b60008060008060808587031215612932576129316121e4565b5b600061294087828801612431565b945050602061295187828801612431565b93505060406129628782880161237c565b925050606085013567ffffffffffffffff811115612983576129826121e9565b5b61298f878288016128ea565b91505092959194509250565b600080604083850312156129b2576129b16121e4565b5b60006129c085828601612431565b92505060206129d185828601612431565b9150509250929050565b7f4e487b7100000000000000000000000000000000000000000000000000000000600052602260045260246000fd5b60006002820490506001821680612a2257607f821691505b602082108103612a3557612a346129db565b5b50919050565b60008190508160005260206000209050919050565b60006020601f8301049050919050565b600082821b905092915050565b600060088302612a9d7fffffffffffffffffffffffffffffffffffffffffffffffffffffffffffffffff82612a60565b612aa78683612a60565b95508019841693508086168417925050509392505050565b6000819050919050565b6000612ae4612adf612ada8461235b565b612abf565b61235b565b9050919050565b6000819050919050565b612afe83612ac9565b612b12612b0a82612aeb565b848454612a6d565b825550505050565b600090565b612b27612b1a565b612b32818484612af5565b505050565b5b81811015612b5657612b4b600082612b1f565b600181019050612b38565b5050565b601f821115612b9b57612b6c81612a3b565b612b7584612a50565b81016020851015612b84578190505b612b98612b9085612a50565b830182612b37565b50505b505050565b600082821c905092915050565b6000612bbe60001984600802612ba0565b1980831691505092915050565b6000612bd78383612bad565b9150826002028217905092915050565b612bf0826122a9565b67ffffffffffffffff811115612c0957612c086124d6565b5b612c138254612a0a565b612c1e828285612b5a565b600060209050601f831160018114612c515760008415612c3f578287015190505b612c498582612bcb565b865550612cb1565b601f198416612c5f86612a3b565b60005b82811015612c8757848901518255600182019150602085019450602081019050612c62565b86831015612ca45784890151612ca0601f891682612bad565b8355505b6001600288020188555050505b505050505050565b6000606082019050612cce60008301866123f0565b612cdb6020830185612486565b612ce860408301846123f0565b949350505050565b7f4e6f7420746f6b656e206f776e65720000000000000000000000000000000000600082015250565b6000612d26600f836122b4565b9150612d3182612cf0565b602082019050919050565b60006020820190508181036000830152612d5581612d19565b9050919050565b7f496e76616c696420737461746520555249000000000000000000000000000000600082015250565b6000612d926011836122b4565b9150612d9d82612d5c565b602082019050919050565b60006020820190508181036000830152612dc181612d85565b9050919050565b7f4e487b7100000000000000000000000000000000000000000000000000000000600052601160045260246000fd5b6000612e028261235b565b9150612e0d8361235b565b9250828201905080821115612e2557612e24612dc8565b5b92915050565b7f496e76616c696420737461746500000000000000000000000000000000000000600082015250565b6000612e61600d836122b4565b9150612e6c82612e2b565b602082019050919050565b60006020820190508181036000830152612e9081612e54565b9050919050565b6000604082019050612eac6000830185612486565b8181036020830152612ebe8184612300565b90509392505050565b6000612ed28261235b565b91507fffffffffffffffffffffffffffffffffffffffffffffffffffffffffffffffff8203612f0457612f03612dc8565b5b600182019050919050565b600081905092915050565b6000612f25826122a9565b612f2f8185612f0f565b9350612f3f8185602086016122c5565b80840191505092915050565b6000612f578285612f1a565b9150612f638284612f1a565b91508190509392505050565b600081519050919050565b600082825260208201905092915050565b6000612f9682612f6f565b612fa08185612f7a565b9350612fb08185602086016122c5565b612fb9816122ef565b840191505092915050565b6000608082019050612fd960008301876123f0565b612fe660208301866123f0565b612ff36040830185612486565b81810360608301526130058184612f8b565b905095945050505050565b60008151905061301f8161221a565b92915050565b60006020828403121561303b5761303a6121e4565b5b600061304984828501613010565b91505092915050565b600060408201905061306760008301856123f0565b6130746020830184612486565b9392505050565b7f4e487b7100000000000000000000000000000000000000000000000000000000600052601260045260246000fdfea264697066735822122052556c8d448c6b01e09c560ddb2fde0c655d878e1279112136c53fbfc1e50c6764736f6c634300081c003368747470733a2f2f707572706c652d696d70726f7665642d686970706f706f74616d75732d3936302e6d7970696e6174612e636c6f75642f697066732f6261666b72656964763570666a6a6d6970703679656b6e6872376a7674616869686f64767437326f737268636632626c74323235327675676d6e6d68747470733a2f2f707572706c652d696d70726f7665642d686970706f706f74616d75732d3936302e6d7970696e6174612e636c6f75642f697066732f6261666b7265696566777875696f3272336473677467786171656467727765346a343262716a3461636f6f666b6236356b6d726f7036346f7a796168747470733a2f2f707572706c652d696d70726f7665642d686970706f706f74616d75732d3936302e6d7970696e6174612e636c6f75642f697066732f6261666b7265696763717966333336706232623466737165796e7737747037626c6370796777746d6d346e647662737175736d6b7a676872646c61",
  "linkReferences": {},
  "deployedLinkReferences": {}
}