{
  "_format": "hh-sol-artifact-1",
  "contractName": "DynamicNFT",
  "sourceName": "contracts/DynamicNFT.sol",
  "abi": [
    {
      "inputs": [],
      "stateMutability": "nonpayable",
      "type": "constructor"
    },
    {
      "inputs": [
        {
          "internalType": "address",
          "name": "sender",
          "type": "address"
        },
        {
          "internalType": "uint256",
          "name": "tokenId",
          "type": "uint256"
        },
        {
          "internalType": "address",
          "name": "owner",
          "type": "address"
        }
      ],
      "name": "ERC721IncorrectOwner",
      "type": "error"
    },
    {
      "inputs": [
        {
          "internalType": "address",
          "name": "operator",
          "type": "address"
        },
        {
          "internalType": "uint256",
          "name": "tokenId",
          "type": "uint256"
        }
      ],
      "name": "ERC721InsufficientApproval",
      "type": "error"
    },
    {
      "inputs": [
        {
          "internalType": "address",
          "name": "approver",
          "type": "address"
        }
      ],
      "name": "ERC721InvalidApprover",
      "type": "error"
    },
    {
      "inputs": [
        {
          "internalType": "address",
          "name": "operator",
          "type": "address"
        }
      ],
      "name": "ERC721InvalidOperator",
      "type": "error"
    },
    {
      "inputs": [
        {
          "internalType": "address",
          "name": "owner",
          "type": "address"
        }
      ],
      "name": "ERC721InvalidOwner",
      "type": "error"
    },
    {
      "inputs": [
        {
          "internalType": "address",
          "name": "receiver",
          "type": "address"
        }
      ],
      "name": "ERC721InvalidReceiver",
      "type": "error"
    },
    {
      "inputs": [
        {
          "internalType": "address",
          "name": "sender",
          "type": "address"
        }
      ],
      "name": "ERC721InvalidSender",
      "type": "error"
    },
    {
      "inputs": [
        {
          "internalType": "uint256",
          "name": "tokenId",
          "type": "uint256"
        }
      ],
      "name": "ERC721NonexistentToken",
      "type": "error"
    },
    {
      "inputs": [
        {
          "internalType": "address",
          "name": "owner",
          "type": "address"
        }
      ],
      "name": "OwnableInvalidOwner",
      "type": "error"
    },
    {
      "inputs": [
        {
          "internalType": "address",
          "name": "account",
          "type": "address"
        }
      ],
      "name": "OwnableUnauthorizedAccount",
      "type": "error"
    },
    {
      "anonymous": false,
      "inputs": [
        {
          "indexed": true,
          "internalType": "address",
          "name": "owner",
          "type": "address"
        },
        {
          "indexed": true,
          "internalType": "address",
          "name": "approved",
          "type": "address"
        },
        {
          "indexed": true,
          "internalType": "uint256",
          "name": "tokenId",
          "type": "uint256"
        }
      ],
      "name": "Approval",
      "type": "event"
    },
    {
      "anonymous": false,
      "inputs": [
        {
          "indexed": true,
          "internalType": "address",
          "name": "owner",
          "type": "address"
        },
        {
          "indexed": true,
          "internalType": "address",
          "name": "operator",
          "type": "address"
        },
        {
          "indexed": false,
          "internalType": "bool",
          "name": "approved",
          "type": "bool"
        }
      ],
      "name": "ApprovalForAll",
      "type": "event"
    },
    {
      "anonymous": false,
      "inputs": [
        {
          "indexed": false,
          "internalType": "uint256",
          "name": "_fromTokenId",
          "type": "uint256"
        },
        {
          "indexed": false,
          "internalType": "uint256",
          "name": "_toTokenId",
          "type": "uint256"
        }
      ],
      "name": "BatchMetadataUpdate",
      "type": "event"
    },
    {
      "anonymous": false,
      "inputs": [
        {
          "indexed": false,
          "internalType": "uint256",
          "name": "_tokenId",
          "type": "uint256"
        }
      ],
      "name": "MetadataUpdate",
      "type": "event"
    },
    {
      "anonymous": false,
      "inputs": [
        {
          "indexed": true,
          "internalType": "address",
          "name": "previousOwner",
          "type": "address"
        },
        {
          "indexed": true,
          "internalType": "address",
          "name": "newOwner",
          "type": "address"
        }
      ],
      "name": "OwnershipTransferred",
      "type": "event"
    },
    {
      "anonymous": false,
      "inputs": [
        {
          "indexed": true,
          "internalType": "uint256",
          "name": "tokenId",
          "type": "uint256"
        },
        {
          "indexed": true,
          "internalType": "address",
          "name": "owner",
          "type": "address"
        },
        {
          "indexed": false,
          "internalType": "uint256",
          "name": "maxScore",
          "type": "uint256"
        },
        {
          "indexed": false,
          "internalType": "uint256",
          "name": "stateId",
          "type": "uint256"
        },
        {
          "indexed": false,
          "internalType": "uint256",
          "name": "totalPlayTime",
          "type": "uint256"
        }
      ],
      "name": "StatsUpdated",
      "type": "event"
    },
    {
      "anonymous": false,
      "inputs": [
        {
          "indexed": true,
          "internalType": "address",
          "name": "from",
          "type": "address"
        },
        {
          "indexed": true,
          "internalType": "address",
          "name": "to",
          "type": "address"
        },
        {
          "indexed": true,
          "internalType": "uint256",
          "name": "tokenId",
          "type": "uint256"
        }
      ],
      "name": "Transfer",
      "type": "event"
    },
    {
      "anonymous": false,
      "inputs": [
        {
          "indexed": true,
          "internalType": "uint256",
          "name": "tokenId",
          "type": "uint256"
        },
        {
          "indexed": true,
          "internalType": "address",
          "name": "owner",
          "type": "address"
        },
        {
          "indexed": false,
          "internalType": "uint256",
          "name": "stateId",
          "type": "uint256"
        },
        {
          "indexed": false,
          "internalType": "string",
          "name": "updatedUri",
          "type": "string"
        }
      ],
      "name": "UpdatedVisualState",
      "type": "event"
    },
    {
      "inputs": [
        {
          "internalType": "address",
          "name": "to",
          "type": "address"
        },
        {
          "internalType": "uint256",
          "name": "tokenId",
          "type": "uint256"
        }
      ],
      "name": "approve",
      "outputs": [],
      "stateMutability": "nonpayable",
      "type": "function"
    },
    {
      "inputs": [
        {
          "internalType": "address",
          "name": "owner",
          "type": "address"
        }
      ],
      "name": "balanceOf",
      "outputs": [
        {
          "internalType": "uint256",
          "name": "",
          "type": "uint256"
        }
      ],
      "stateMutability": "view",
      "type": "function"
    },
    {
      "inputs": [
        {
          "internalType": "uint256",
          "name": "",
          "type": "uint256"
        }
      ],
      "name": "dnftStats",
      "outputs": [
        {
          "internalType": "uint256",
          "name": "maxScore",
          "type": "uint256"
        },
        {
          "internalType": "uint256",
          "name": "stateId",
          "type": "uint256"
        },
        {
          "internalType": "uint256",
          "name": "playTime",
          "type": "uint256"
        }
      ],
      "stateMutability": "view",
      "type": "function"
    },
    {
      "inputs": [
        {
          "internalType": "uint256",
          "name": "tokenId",
          "type": "uint256"
        }
      ],
      "name": "getApproved",
      "outputs": [
        {
          "internalType": "address",
          "name": "",
          "type": "address"
        }
      ],
      "stateMutability": "view",
      "type": "function"
    },
    {
      "inputs": [
        {
          "internalType": "uint256",
          "name": "tokenId",
          "type": "uint256"
        }
      ],
      "name": "getStats",
      "outputs": [
        {
          "components": [
            {
              "internalType": "uint256",
              "name": "maxScore",
              "type": "uint256"
            },
            {
              "internalType": "uint256",
              "name": "stateId",
              "type": "uint256"
            },
            {
              "internalType": "uint256",
              "name": "playTime",
              "type": "uint256"
            }
          ],
          "internalType": "struct DynamicNFT.PlayerStats",
          "name": "",
          "type": "tuple"
        }
      ],
      "stateMutability": "view",
      "type": "function"
    },
    {
      "inputs": [
        {
          "internalType": "uint256",
          "name": "tokenId",
          "type": "uint256"
        }
      ],
      "name": "getTokenInfo",
      "outputs": [
        {
          "components": [
            {
              "internalType": "uint256",
              "name": "tokenId",
              "type": "uint256"
            },
            {
              "internalType": "string",
              "name": "tokenURI",
              "type": "string"
            },
            {
              "components": [
                {
                  "internalType": "uint256",
                  "name": "maxScore",
                  "type": "uint256"
                },
                {
                  "internalType": "uint256",
                  "name": "stateId",
                  "type": "uint256"
                },
                {
                  "internalType": "uint256",
                  "name": "playTime",
                  "type": "uint256"
                }
              ],
              "internalType": "struct DynamicNFT.PlayerStats",
              "name": "stats",
              "type": "tuple"
            },
            {
              "internalType": "address",
              "name": "owner",
              "type": "address"
            }
          ],
          "internalType": "struct DynamicNFT.TokenInfo",
          "name": "",
          "type": "tuple"
        }
      ],
      "stateMutability": "view",
      "type": "function"
    },
    {
      "inputs": [
        {
          "internalType": "address",
          "name": "owner",
          "type": "address"
        }
      ],
      "name": "getTokensInfoOfOwner",
      "outputs": [
        {
          "components": [
            {
              "internalType": "uint256",
              "name": "tokenId",
              "type": "uint256"
            },
            {
              "internalType": "string",
              "name": "tokenURI",
              "type": "string"
            },
            {
              "components": [
                {
                  "internalType": "uint256",
                  "name": "maxScore",
                  "type": "uint256"
                },
                {
                  "internalType": "uint256",
                  "name": "stateId",
                  "type": "uint256"
                },
                {
                  "internalType": "uint256",
                  "name": "playTime",
                  "type": "uint256"
                }
              ],
              "internalType": "struct DynamicNFT.PlayerStats",
              "name": "stats",
              "type": "tuple"
            },
            {
              "internalType": "address",
              "name": "owner",
              "type": "address"
            }
          ],
          "internalType": "struct DynamicNFT.TokenInfo[]",
          "name": "",
          "type": "tuple[]"
        }
      ],
      "stateMutability": "view",
      "type": "function"
    },
    {
      "inputs": [
        {
          "internalType": "address",
          "name": "owner",
          "type": "address"
        }
      ],
      "name": "getTokensOfOwner",
      "outputs": [
        {
          "internalType": "uint256[]",
          "name": "",
          "type": "uint256[]"
        }
      ],
      "stateMutability": "view",
      "type": "function"
    },
    {
      "inputs": [
        {
          "internalType": "address",
          "name": "owner",
          "type": "address"
        },
        {
          "internalType": "address",
          "name": "operator",
          "type": "address"
        }
      ],
      "name": "isApprovedForAll",
      "outputs": [
        {
          "internalType": "bool",
          "name": "",
          "type": "bool"
        }
      ],
      "stateMutability": "view",
      "type": "function"
    },
    {
      "inputs": [
        {
          "internalType": "address",
          "name": "to",
          "type": "address"
        },
        {
          "internalType": "uint256",
          "name": "score",
          "type": "uint256"
        }
      ],
      "name": "mint",
      "outputs": [
        {
          "internalType": "uint256",
          "name": "",
          "type": "uint256"
        }
      ],
      "stateMutability": "nonpayable",
      "type": "function"
    },
    {
      "inputs": [],
      "name": "name",
      "outputs": [
        {
          "internalType": "string",
          "name": "",
          "type": "string"
        }
      ],
      "stateMutability": "view",
      "type": "function"
    },
    {
      "inputs": [],
      "name": "nextTokenId",
      "outputs": [
        {
          "internalType": "uint256",
          "name": "",
          "type": "uint256"
        }
      ],
      "stateMutability": "view",
      "type": "function"
    },
    {
      "inputs": [],
      "name": "owner",
      "outputs": [
        {
          "internalType": "address",
          "name": "",
          "type": "address"
        }
      ],
      "stateMutability": "view",
      "type": "function"
    },
    {
      "inputs": [
        {
          "internalType": "uint256",
          "name": "tokenId",
          "type": "uint256"
        }
      ],
      "name": "ownerOf",
      "outputs": [
        {
          "internalType": "address",
          "name": "",
          "type": "address"
        }
      ],
      "stateMutability": "view",
      "type": "function"
    },
    {
      "inputs": [],
      "name": "renounceOwnership",
      "outputs": [],
      "stateMutability": "nonpayable",
      "type": "function"
    },
    {
      "inputs": [
        {
          "internalType": "address",
          "name": "from",
          "type": "address"
        },
        {
          "internalType": "address",
          "name": "to",
          "type": "address"
        },
        {
          "internalType": "uint256",
          "name": "tokenId",
          "type": "uint256"
        }
      ],
      "name": "safeTransferFrom",
      "outputs": [],
      "stateMutability": "nonpayable",
      "type": "function"
    },
    {
      "inputs": [
        {
          "internalType": "address",
          "name": "from",
          "type": "address"
        },
        {
          "internalType": "address",
          "name": "to",
          "type": "address"
        },
        {
          "internalType": "uint256",
          "name": "tokenId",
          "type": "uint256"
        },
        {
          "internalType": "bytes",
          "name": "data",
          "type": "bytes"
        }
      ],
      "name": "safeTransferFrom",
      "outputs": [],
      "stateMutability": "nonpayable",
      "type": "function"
    },
    {
      "inputs": [
        {
          "internalType": "address",
          "name": "operator",
          "type": "address"
        },
        {
          "internalType": "bool",
          "name": "approved",
          "type": "bool"
        }
      ],
      "name": "setApprovalForAll",
      "outputs": [],
      "stateMutability": "nonpayable",
      "type": "function"
    },
    {
      "inputs": [
        {
          "internalType": "uint256",
          "name": "stateId",
          "type": "uint256"
        },
        {
          "internalType": "string",
          "name": "fullUri",
          "type": "string"
        }
      ],
      "name": "setStateFullUri",
      "outputs": [],
      "stateMutability": "nonpayable",
      "type": "function"
    },
    {
      "inputs": [
        {
          "internalType": "uint256",
          "name": "",
          "type": "uint256"
        }
      ],
      "name": "stateFullUris",
      "outputs": [
        {
          "internalType": "string",
          "name": "",
          "type": "string"
        }
      ],
      "stateMutability": "view",
      "type": "function"
    },
    {
      "inputs": [
        {
          "internalType": "bytes4",
          "name": "interfaceId",
          "type": "bytes4"
        }
      ],
      "name": "supportsInterface",
      "outputs": [
        {
          "internalType": "bool",
          "name": "",
          "type": "bool"
        }
      ],
      "stateMutability": "view",
      "type": "function"
    },
    {
      "inputs": [],
      "name": "symbol",
      "outputs": [
        {
          "internalType": "string",
          "name": "",
          "type": "string"
        }
      ],
      "stateMutability": "view",
      "type": "function"
    },
    {
      "inputs": [
        {
          "internalType": "uint256",
          "name": "tokenId",
          "type": "uint256"
        }
      ],
      "name": "tokenURI",
      "outputs": [
        {
          "internalType": "string",
          "name": "",
          "type": "string"
        }
      ],
      "stateMutability": "view",
      "type": "function"
    },
    {
      "inputs": [
        {
          "internalType": "address",
          "name": "from",
          "type": "address"
        },
        {
          "internalType": "address",
          "name": "to",
          "type": "address"
        },
        {
          "internalType": "uint256",
          "name": "tokenId",
          "type": "uint256"
        }
      ],
      "name": "transferFrom",
      "outputs": [],
      "stateMutability": "nonpayable",
      "type": "function"
    },
    {
      "inputs": [
        {
          "internalType": "address",
          "name": "newOwner",
          "type": "address"
        }
      ],
      "name": "transferOwnership",
      "outputs": [],
      "stateMutability": "nonpayable",
      "type": "function"
    },
    {
      "inputs": [
        {
          "internalType": "uint256",
          "name": "tokenId",
          "type": "uint256"
        },
        {
          "internalType": "uint256",
          "name": "score",
          "type": "uint256"
        },
        {
          "internalType": "uint256",
          "name": "newState",
          "type": "uint256"
        },
        {
          "internalType": "uint256",
          "name": "playTime",
          "type": "uint256"
        }
      ],
      "name": "updateStats",
      "outputs": [],
      "stateMutability": "nonpayable",
      "type": "function"
    },
    {
      "inputs": [
        {
          "internalType": "uint256",
          "name": "tokenId",
          "type": "uint256"
        },
        {
          "internalType": "uint256",
          "name": "newStateId",
          "type": "uint256"
        }
      ],
      "name": "updateVisualState",
      "outputs": [],
      "stateMutability": "nonpayable",
      "type": "function"
    }
  ],
  "bytecode": "0x608060405234801561001057600080fd5b50336040518060400160405280600a81526020017f44796e616d69634e4654000000000000000000000000000000000000000000008152506040518060400160405280600481526020017f444e465400000000000000000000000000000000000000000000000000000000815250816000908161008d91906104eb565b50806001908161009d91906104eb565b505050600073ffffffffffffffffffffffffffffffffffffffff168173ffffffffffffffffffffffffffffffffffffffff16036101125760006040517f1e4fbdf700000000000000000000000000000000000000000000000000000000815260040161010991906105fe565b60405180910390fd5b610121816101d560201b60201c565b506040518060a0016040528060788152602001613e97607891396009600060018152602001908152602001600020908161015b91906104eb565b506040518060a0016040528060788152602001613f0f607891396009600060028152602001908152602001600020908161019591906104eb565b506040518060a0016040528060788152602001613f8760789139600960006003815260200190815260200160002090816101cf91906104eb565b50610619565b6000600760009054906101000a900473ffffffffffffffffffffffffffffffffffffffff16905081600760006101000a81548173ffffffffffffffffffffffffffffffffffffffff021916908373ffffffffffffffffffffffffffffffffffffffff1602179055508173ffffffffffffffffffffffffffffffffffffffff168173ffffffffffffffffffffffffffffffffffffffff167f8be0079c531659141344cd1fd0a4f28419497f9722a3daafe3b4186f6b6457e060405160405180910390a35050565b600081519050919050565b7f4e487b7100000000000000000000000000000000000000000000000000000000600052604160045260246000fd5b7f4e487b7100000000000000000000000000000000000000000000000000000000600052602260045260246000fd5b6000600282049050600182168061031c57607f821691505b60208210810361032f5761032e6102d5565b5b50919050565b60008190508160005260206000209050919050565b60006020601f8301049050919050565b600082821b905092915050565b6000600883026103977fffffffffffffffffffffffffffffffffffffffffffffffffffffffffffffffff8261035a565b6103a1868361035a565b95508019841693508086168417925050509392505050565b6000819050919050565b6000819050919050565b60006103e86103e36103de846103b9565b6103c3565b6103b9565b9050919050565b6000819050919050565b610402836103cd565b61041661040e826103ef565b848454610367565b825550505050565b600090565b61042b61041e565b6104368184846103f9565b505050565b5b8181101561045a5761044f600082610423565b60018101905061043c565b5050565b601f82111561049f5761047081610335565b6104798461034a565b81016020851015610488578190505b61049c6104948561034a565b83018261043b565b50505b505050565b600082821c905092915050565b60006104c2600019846008026104a4565b1980831691505092915050565b60006104db83836104b1565b9150826002028217905092915050565b6104f48261029b565b67ffffffffffffffff81111561050d5761050c6102a6565b5b6105178254610304565b61052282828561045e565b600060209050601f8311600181146105555760008415610543578287015190505b61054d85826104cf565b8655506105b5565b601f19841661056386610335565b60005b8281101561058b57848901518255600182019150602085019450602081019050610566565b868310156105a857848901516105a4601f8916826104b1565b8355505b6001600288020188555050505b505050505050565b600073ffffffffffffffffffffffffffffffffffffffff82169050919050565b60006105e8826105bd565b9050919050565b6105f8816105dd565b82525050565b600060208201905061061360008301846105ef565b92915050565b61386f806106286000396000f3fe608060405234801561001057600080fd5b50600436106101a95760003560e01c806370a08231116100f95780639d15a7a911610097578063c87b56dd11610071578063c87b56dd146104f2578063df01136714610522578063e985e9c514610552578063f2fde38b14610582576101a9565b80639d15a7a91461048a578063a22cb465146104ba578063b88d4fde146104d6576101a9565b80637b303965116100d35780637b303965146103ee5780638c7a63ae1461041e5780638da5cb5b1461044e57806395d89b411461046c576101a9565b806370a0823114610396578063715018a6146103c657806375794a3c146103d0576101a9565b806323b872dd1161016657806340c10f191161014057806340c10f19146102ea57806342842e0e1461031a5780635de6dc55146103365780636352211e14610366576101a9565b806323b872dd1461029657806326dbbcc3146102b25780632dfb7c2a146102ce576101a9565b806301ffc9a7146101ae57806306fdde03146101de578063081812fc146101fc578063095ea7b31461022c57806316cb4cf5146102485780631c335e2f1461027a575b600080fd5b6101c860048036038101906101c39190612602565b61059e565b6040516101d5919061264a565b60405180910390f35b6101e66105ff565b6040516101f391906126f5565b60405180910390f35b6102166004803603810190610211919061274d565b610691565b60405161022391906127bb565b60405180910390f35b61024660048036038101906102419190612802565b6106ad565b005b610262600480360381019061025d919061274d565b6106c3565b60405161027193929190612851565b60405180910390f35b610294600480360381019061028f91906129bd565b6106ed565b005b6102b060048036038101906102ab9190612a19565b61071a565b005b6102cc60048036038101906102c79190612a6c565b61081c565b005b6102e860048036038101906102e39190612ad3565b610a44565b005b61030460048036038101906102ff9190612802565b610c2f565b6040516103119190612b13565b60405180910390f35b610334600480360381019061032f9190612a19565b610d56565b005b610350600480360381019061034b9190612b2e565b610d76565b60405161035d9190612c19565b60405180910390f35b610380600480360381019061037b919061274d565b610e6b565b60405161038d91906127bb565b60405180910390f35b6103b060048036038101906103ab9190612b2e565b610e7d565b6040516103bd9190612b13565b60405180910390f35b6103ce610f37565b005b6103d8610f4b565b6040516103e59190612b13565b60405180910390f35b6104086004803603810190610403919061274d565b610f51565b6040516104159190612c7d565b60405180910390f35b6104386004803603810190610433919061274d565b610f9c565b6040516104459190612d96565b60405180910390f35b610456611071565b60405161046391906127bb565b60405180910390f35b61047461109b565b60405161048191906126f5565b60405180910390f35b6104a4600480360381019061049f9190612b2e565b61112d565b6040516104b19190612edd565b60405180910390f35b6104d460048036038101906104cf9190612f2b565b6111fa565b005b6104f060048036038101906104eb919061300c565b611210565b005b61050c6004803603810190610507919061274d565b611235565b60405161051991906126f5565b60405180910390f35b61053c6004803603810190610537919061274d565b611348565b60405161054991906126f5565b60405180910390f35b61056c6004803603810190610567919061308f565b6113e8565b604051610579919061264a565b60405180910390f35b61059c60048036038101906105979190612b2e565b61147c565b005b6000634906490660e01b7bffffffffffffffffffffffffffffffffffffffffffffffffffffffff1916827bffffffffffffffffffffffffffffffffffffffffffffffffffffffff191614806105f857506105f782611502565b5b9050919050565b60606000805461060e906130fe565b80601f016020809104026020016040519081016040528092919081815260200182805461063a906130fe565b80156106875780601f1061065c57610100808354040283529160200191610687565b820191906000526020600020905b81548152906001019060200180831161066a57829003601f168201915b5050505050905090565b600061069c826115e4565b506106a68261166c565b9050919050565b6106bf82826106ba6116a9565b6116b1565b5050565b60086020528060005260406000206000915090508060000154908060010154908060020154905083565b6106f56116c3565b8060096000848152602001908152602001600020908161071591906132db565b505050565b600073ffffffffffffffffffffffffffffffffffffffff168273ffffffffffffffffffffffffffffffffffffffff160361078c5760006040517f64a0ae9200000000000000000000000000000000000000000000000000000000815260040161078391906127bb565b60405180910390fd5b60006107a0838361079b6116a9565b61174a565b90508373ffffffffffffffffffffffffffffffffffffffff168173ffffffffffffffffffffffffffffffffffffffff1614610816578382826040517f64283d7b00000000000000000000000000000000000000000000000000000000815260040161080d939291906133ad565b60405180910390fd5b50505050565b3373ffffffffffffffffffffffffffffffffffffffff1661083c85610e6b565b73ffffffffffffffffffffffffffffffffffffffff1614610892576040517f08c379a000000000000000000000000000000000000000000000000000000000815260040161088990613430565b60405180910390fd5b600060086000868152602001908152602001600020905080600001548411156108bf578381600001819055505b828160010154146109c35782816001018190555060006009600085815260200190815260200160002080546108f3906130fe565b80601f016020809104026020016040519081016040528092919081815260200182805461091f906130fe565b801561096c5780601f106109415761010080835404028352916020019161096c565b820191906000526020600020905b81548152906001019060200180831161094f57829003601f168201915b5050505050905060008151116109b7576040517f08c379a00000000000000000000000000000000000000000000000000000000081526004016109ae9061349c565b60405180910390fd5b6109c18682611964565b505b818160020160008282546109d791906134eb565b925050819055503373ffffffffffffffffffffffffffffffffffffffff16857f5fc71ebad6e6dd7b877691d6c01768232bd850b648b45eece8acd170d27ea522836000015484600101548560020154604051610a3593929190612851565b60405180910390a35050505050565b3373ffffffffffffffffffffffffffffffffffffffff16610a6483610e6b565b73ffffffffffffffffffffffffffffffffffffffff1614610aba576040517f08c379a0000000000000000000000000000000000000000000000000000000008152600401610ab190613430565b60405180910390fd5b6000600960008381526020019081526020016000208054610ada906130fe565b80601f0160208091040260200160405190810160405280929190818152602001828054610b06906130fe565b8015610b535780601f10610b2857610100808354040283529160200191610b53565b820191906000526020600020905b815481529060010190602001808311610b3657829003601f168201915b505050505090506000815111610b9e576040517f08c379a0000000000000000000000000000000000000000000000000000000008152600401610b959061356b565b60405180910390fd5b816008600085815260200190815260200160002060010181905550610bc38382611964565b3373ffffffffffffffffffffffffffffffffffffffff16837f2d5adfcccd6c5348665af70a5740d23edc916b27e83acb7f54f4e9bf10cf1d41600860008781526020019081526020016000206001015484604051610c2292919061358b565b60405180910390a3505050565b600080600a6000815480929190610c45906135bb565b919050559050610c5584826119c0565b604051806060016040528084815260200160018152602001600081525060086000838152602001908152602001600020600082015181600001556020820151816001015560408201518160020155905050610d4c8160096000600181526020019081526020016000208054610cc9906130fe565b80601f0160208091040260200160405190810160405280929190818152602001828054610cf5906130fe565b8015610d425780601f10610d1757610100808354040283529160200191610d42565b820191906000526020600020905b815481529060010190602001808311610d2557829003601f168201915b5050505050611964565b8091505092915050565b610d7183838360405180602001604052806000815250611210565b505050565b60606000610d8383610e7d565b905060008167ffffffffffffffff811115610da157610da0612892565b5b604051908082528060200260200182016040528015610dcf5781602001602082028036833780820191505090505b5090506000805b600a54811015610e5f578573ffffffffffffffffffffffffffffffffffffffff16610e0082610e6b565b73ffffffffffffffffffffffffffffffffffffffff1603610e525780838381518110610e2f57610e2e613603565b5b6020026020010181815250508180610e46906135bb565b92505083820315610e5f575b8080600101915050610dd6565b50819350505050919050565b6000610e76826115e4565b9050919050565b60008073ffffffffffffffffffffffffffffffffffffffff168273ffffffffffffffffffffffffffffffffffffffff1603610ef05760006040517f89c62b64000000000000000000000000000000000000000000000000000000008152600401610ee791906127bb565b60405180910390fd5b600360008373ffffffffffffffffffffffffffffffffffffffff1673ffffffffffffffffffffffffffffffffffffffff168152602001908152602001600020549050919050565b610f3f6116c3565b610f496000611ab9565b565b600a5481565b610f59612531565b6008600083815260200190815260200160002060405180606001604052908160008201548152602001600182015481526020016002820154815250509050919050565b610fa4612552565b600a548210610fe8576040517f08c379a0000000000000000000000000000000000000000000000000000000008152600401610fdf9061367e565b60405180910390fd5b604051806080016040528083815260200161100284611235565b8152602001600860008581526020019081526020016000206040518060600160405290816000820154815260200160018201548152602001600282015481525050815260200161105184610e6b565b73ffffffffffffffffffffffffffffffffffffffff168152509050919050565b6000600760009054906101000a900473ffffffffffffffffffffffffffffffffffffffff16905090565b6060600180546110aa906130fe565b80601f01602080910402602001604051908101604052809291908181526020018280546110d6906130fe565b80156111235780601f106110f857610100808354040283529160200191611123565b820191906000526020600020905b81548152906001019060200180831161110657829003601f168201915b5050505050905090565b6060600061113a83610d76565b90506000815167ffffffffffffffff81111561115957611158612892565b5b60405190808252806020026020018201604052801561119257816020015b61117f612552565b8152602001906001900390816111775790505b50905060005b82518110156111ef576111c48382815181106111b7576111b6613603565b5b6020026020010151610f9c565b8282815181106111d7576111d6613603565b5b60200260200101819052508080600101915050611198565b508092505050919050565b61120c6112056116a9565b8383611b7f565b5050565b61121b84848461071a565b61122f6112266116a9565b85858585611cee565b50505050565b6060611240826115e4565b506000600660008481526020019081526020016000208054611261906130fe565b80601f016020809104026020016040519081016040528092919081815260200182805461128d906130fe565b80156112da5780601f106112af576101008083540402835291602001916112da565b820191906000526020600020905b8154815290600101906020018083116112bd57829003601f168201915b5050505050905060006112eb611e9f565b90506000815103611300578192505050611343565b60008251111561133557808260405160200161131d9291906136da565b60405160208183030381529060405292505050611343565b61133e84611eb6565b925050505b919050565b60096020528060005260406000206000915090508054611367906130fe565b80601f0160208091040260200160405190810160405280929190818152602001828054611393906130fe565b80156113e05780601f106113b5576101008083540402835291602001916113e0565b820191906000526020600020905b8154815290600101906020018083116113c357829003601f168201915b505050505081565b6000600560008473ffffffffffffffffffffffffffffffffffffffff1673ffffffffffffffffffffffffffffffffffffffff16815260200190815260200160002060008373ffffffffffffffffffffffffffffffffffffffff1673ffffffffffffffffffffffffffffffffffffffff16815260200190815260200160002060009054906101000a900460ff16905092915050565b6114846116c3565b600073ffffffffffffffffffffffffffffffffffffffff168173ffffffffffffffffffffffffffffffffffffffff16036114f65760006040517f1e4fbdf70000000000000000000000000000000000000000000000000000000081526004016114ed91906127bb565b60405180910390fd5b6114ff81611ab9565b50565b60007f80ac58cd000000000000000000000000000000000000000000000000000000007bffffffffffffffffffffffffffffffffffffffffffffffffffffffff1916827bffffffffffffffffffffffffffffffffffffffffffffffffffffffff191614806115cd57507f5b5e139f000000000000000000000000000000000000000000000000000000007bffffffffffffffffffffffffffffffffffffffffffffffffffffffff1916827bffffffffffffffffffffffffffffffffffffffffffffffffffffffff1916145b806115dd57506115dc82611f1f565b5b9050919050565b6000806115f083611f89565b9050600073ffffffffffffffffffffffffffffffffffffffff168173ffffffffffffffffffffffffffffffffffffffff160361166357826040517f7e27328900000000000000000000000000000000000000000000000000000000815260040161165a9190612b13565b60405180910390fd5b80915050919050565b60006004600083815260200190815260200160002060009054906101000a900473ffffffffffffffffffffffffffffffffffffffff169050919050565b600033905090565b6116be8383836001611fc6565b505050565b6116cb6116a9565b73ffffffffffffffffffffffffffffffffffffffff166116e9611071565b73ffffffffffffffffffffffffffffffffffffffff16146117485761170c6116a9565b6040517f118cdaa700000000000000000000000000000000000000000000000000000000815260040161173f91906127bb565b60405180910390fd5b565b60008061175684611f89565b9050600073ffffffffffffffffffffffffffffffffffffffff168373ffffffffffffffffffffffffffffffffffffffff16146117985761179781848661218b565b5b600073ffffffffffffffffffffffffffffffffffffffff168173ffffffffffffffffffffffffffffffffffffffff1614611829576117da600085600080611fc6565b6001600360008373ffffffffffffffffffffffffffffffffffffffff1673ffffffffffffffffffffffffffffffffffffffff168152602001908152602001600020600082825403925050819055505b600073ffffffffffffffffffffffffffffffffffffffff168573ffffffffffffffffffffffffffffffffffffffff16146118ac576001600360008773ffffffffffffffffffffffffffffffffffffffff1673ffffffffffffffffffffffffffffffffffffffff168152602001908152602001600020600082825401925050819055505b846002600086815260200190815260200160002060006101000a81548173ffffffffffffffffffffffffffffffffffffffff021916908373ffffffffffffffffffffffffffffffffffffffff160217905550838573ffffffffffffffffffffffffffffffffffffffff168273ffffffffffffffffffffffffffffffffffffffff167fddf252ad1be2c89b69c2b068fc378daa952ba7f163c4a11628f55a4df523b3ef60405160405180910390a4809150509392505050565b8060066000848152602001908152602001600020908161198491906132db565b507ff8e1a15aba9398e019f0b49df1a4fde98ee17ae345cb5f6b5e2c27f5033e8ce7826040516119b49190612b13565b60405180910390a15050565b600073ffffffffffffffffffffffffffffffffffffffff168273ffffffffffffffffffffffffffffffffffffffff1603611a325760006040517f64a0ae92000000000000000000000000000000000000000000000000000000008152600401611a2991906127bb565b60405180910390fd5b6000611a408383600061174a565b9050600073ffffffffffffffffffffffffffffffffffffffff168173ffffffffffffffffffffffffffffffffffffffff1614611ab45760006040517f73c6ac6e000000000000000000000000000000000000000000000000000000008152600401611aab91906127bb565b60405180910390fd5b505050565b6000600760009054906101000a900473ffffffffffffffffffffffffffffffffffffffff16905081600760006101000a81548173ffffffffffffffffffffffffffffffffffffffff021916908373ffffffffffffffffffffffffffffffffffffffff1602179055508173ffffffffffffffffffffffffffffffffffffffff168173ffffffffffffffffffffffffffffffffffffffff167f8be0079c531659141344cd1fd0a4f28419497f9722a3daafe3b4186f6b6457e060405160405180910390a35050565b600073ffffffffffffffffffffffffffffffffffffffff168273ffffffffffffffffffffffffffffffffffffffff1603611bf057816040517f5b08ba18000000000000000000000000000000000000000000000000000000008152600401611be791906127bb565b60405180910390fd5b80600560008573ffffffffffffffffffffffffffffffffffffffff1673ffffffffffffffffffffffffffffffffffffffff16815260200190815260200160002060008473ffffffffffffffffffffffffffffffffffffffff1673ffffffffffffffffffffffffffffffffffffffff16815260200190815260200160002060006101000a81548160ff0219169083151502179055508173ffffffffffffffffffffffffffffffffffffffff168373ffffffffffffffffffffffffffffffffffffffff167f17307eab39ab6107e8899845ad3d59bd9653f200f220920489ca2b5937696c3183604051611ce1919061264a565b60405180910390a3505050565b60008373ffffffffffffffffffffffffffffffffffffffff163b1115611e98578273ffffffffffffffffffffffffffffffffffffffff1663150b7a02868685856040518563ffffffff1660e01b8152600401611d4d9493929190613753565b6020604051808303816000875af1925050508015611d8957506040513d601f19601f82011682018060405250810190611d8691906137b4565b60015b611e0d573d8060008114611db9576040519150601f19603f3d011682016040523d82523d6000602084013e611dbe565b606091505b506000815103611e0557836040517f64a0ae92000000000000000000000000000000000000000000000000000000008152600401611dfc91906127bb565b60405180910390fd5b805181602001fd5b63150b7a0260e01b7bffffffffffffffffffffffffffffffffffffffffffffffffffffffff1916817bffffffffffffffffffffffffffffffffffffffffffffffffffffffff191614611e9657836040517f64a0ae92000000000000000000000000000000000000000000000000000000008152600401611e8d91906127bb565b60405180910390fd5b505b5050505050565b606060405180602001604052806000815250905090565b6060611ec1826115e4565b506000611ecc611e9f565b90506000815111611eec5760405180602001604052806000815250611f17565b80611ef68461224f565b604051602001611f079291906136da565b6040516020818303038152906040525b915050919050565b60007f01ffc9a7000000000000000000000000000000000000000000000000000000007bffffffffffffffffffffffffffffffffffffffffffffffffffffffff1916827bffffffffffffffffffffffffffffffffffffffffffffffffffffffff1916149050919050565b60006002600083815260200190815260200160002060009054906101000a900473ffffffffffffffffffffffffffffffffffffffff169050919050565b8080611fff5750600073ffffffffffffffffffffffffffffffffffffffff168273ffffffffffffffffffffffffffffffffffffffff1614155b1561213357600061200f846115e4565b9050600073ffffffffffffffffffffffffffffffffffffffff168373ffffffffffffffffffffffffffffffffffffffff161415801561207a57508273ffffffffffffffffffffffffffffffffffffffff168173ffffffffffffffffffffffffffffffffffffffff1614155b801561208d575061208b81846113e8565b155b156120cf57826040517fa9fbf51f0000000000000000000000000000000000000000000000000000000081526004016120c691906127bb565b60405180910390fd5b811561213157838573ffffffffffffffffffffffffffffffffffffffff168273ffffffffffffffffffffffffffffffffffffffff167f8c5be1e5ebec7d5bd14f71427d1e84f3dd0314c0f7b2291e5b200ac8c7c3b92560405160405180910390a45b505b836004600085815260200190815260200160002060006101000a81548173ffffffffffffffffffffffffffffffffffffffff021916908373ffffffffffffffffffffffffffffffffffffffff16021790555050505050565b61219683838361231d565b61224a57600073ffffffffffffffffffffffffffffffffffffffff168373ffffffffffffffffffffffffffffffffffffffff160361220b57806040517f7e2732890000000000000000000000000000000000000000000000000000000081526004016122029190612b13565b60405180910390fd5b81816040517f177e802f0000000000000000000000000000000000000000000000000000000081526004016122419291906137e1565b60405180910390fd5b505050565b60606000600161225e846123de565b01905060008167ffffffffffffffff81111561227d5761227c612892565b5b6040519080825280601f01601f1916602001820160405280156122af5781602001600182028036833780820191505090505b509050600082602001820190505b600115612312578080600190039150507f3031323334353637383961626364656600000000000000000000000000000000600a86061a8153600a85816123065761230561380a565b5b049450600085036122bd575b819350505050919050565b60008073ffffffffffffffffffffffffffffffffffffffff168373ffffffffffffffffffffffffffffffffffffffff16141580156123d557508273ffffffffffffffffffffffffffffffffffffffff168473ffffffffffffffffffffffffffffffffffffffff161480612396575061239584846113e8565b5b806123d457508273ffffffffffffffffffffffffffffffffffffffff166123bc8361166c565b73ffffffffffffffffffffffffffffffffffffffff16145b5b90509392505050565b600080600090507a184f03e93ff9f4daa797ed6e38ed64bf6a1f010000000000000000831061243c577a184f03e93ff9f4daa797ed6e38ed64bf6a1f01000000000000000083816124325761243161380a565b5b0492506040810190505b6d04ee2d6d415b85acef81000000008310612479576d04ee2d6d415b85acef8100000000838161246f5761246e61380a565b5b0492506020810190505b662386f26fc1000083106124a857662386f26fc10000838161249e5761249d61380a565b5b0492506010810190505b6305f5e10083106124d1576305f5e10083816124c7576124c661380a565b5b0492506008810190505b61271083106124f65761271083816124ec576124eb61380a565b5b0492506004810190505b60648310612519576064838161250f5761250e61380a565b5b0492506002810190505b600a8310612528576001810190505b80915050919050565b60405180606001604052806000815260200160008152602001600081525090565b60405180608001604052806000815260200160608152602001612573612531565b8152602001600073ffffffffffffffffffffffffffffffffffffffff1681525090565b6000604051905090565b600080fd5b600080fd5b60007fffffffff0000000000000000000000000000000000000000000000000000000082169050919050565b6125df816125aa565b81146125ea57600080fd5b50565b6000813590506125fc816125d6565b92915050565b600060208284031215612618576126176125a0565b5b6000612626848285016125ed565b91505092915050565b60008115159050919050565b6126448161262f565b82525050565b600060208201905061265f600083018461263b565b92915050565b600081519050919050565b600082825260208201905092915050565b60005b8381101561269f578082015181840152602081019050612684565b60008484015250505050565b6000601f19601f8301169050919050565b60006126c782612665565b6126d18185612670565b93506126e1818560208601612681565b6126ea816126ab565b840191505092915050565b6000602082019050818103600083015261270f81846126bc565b905092915050565b6000819050919050565b61272a81612717565b811461273557600080fd5b50565b60008135905061274781612721565b92915050565b600060208284031215612763576127626125a0565b5b600061277184828501612738565b91505092915050565b600073ffffffffffffffffffffffffffffffffffffffff82169050919050565b60006127a58261277a565b9050919050565b6127b58161279a565b82525050565b60006020820190506127d060008301846127ac565b92915050565b6127df8161279a565b81146127ea57600080fd5b50565b6000813590506127fc816127d6565b92915050565b60008060408385031215612819576128186125a0565b5b6000612827858286016127ed565b925050602061283885828601612738565b9150509250929050565b61284b81612717565b82525050565b60006060820190506128666000830186612842565b6128736020830185612842565b6128806040830184612842565b949350505050565b600080fd5b600080fd5b7f4e487b7100000000000000000000000000000000000000000000000000000000600052604160045260246000fd5b6128ca826126ab565b810181811067ffffffffffffffff821117156128e9576128e8612892565b5b80604052505050565b60006128fc612596565b905061290882826128c1565b919050565b600067ffffffffffffffff82111561292857612927612892565b5b612931826126ab565b9050602081019050919050565b82818337600083830152505050565b600061296061295b8461290d565b6128f2565b90508281526020810184848401111561297c5761297b61288d565b5b61298784828561293e565b509392505050565b600082601f8301126129a4576129a3612888565b5b81356129b484826020860161294d565b91505092915050565b600080604083850312156129d4576129d36125a0565b5b60006129e285828601612738565b925050602083013567ffffffffffffffff811115612a0357612a026125a5565b5b612a0f8582860161298f565b9150509250929050565b600080600060608486031215612a3257612a316125a0565b5b6000612a40868287016127ed565b9350506020612a51868287016127ed565b9250506040612a6286828701612738565b9150509250925092565b60008060008060808587031215612a8657612a856125a0565b5b6000612a9487828801612738565b9450506020612aa587828801612738565b9350506040612ab687828801612738565b9250506060612ac787828801612738565b91505092959194509250565b60008060408385031215612aea57612ae96125a0565b5b6000612af885828601612738565b9250506020612b0985828601612738565b9150509250929050565b6000602082019050612b286000830184612842565b92915050565b600060208284031215612b4457612b436125a0565b5b6000612b52848285016127ed565b91505092915050565b600081519050919050565b600082825260208201905092915050565b6000819050602082019050919050565b612b9081612717565b82525050565b6000612ba28383612b87565b60208301905092915050565b6000602082019050919050565b6000612bc682612b5b565b612bd08185612b66565b9350612bdb83612b77565b8060005b83811015612c0c578151612bf38882612b96565b9750612bfe83612bae565b925050600181019050612bdf565b5085935050505092915050565b60006020820190508181036000830152612c338184612bbb565b905092915050565b606082016000820151612c516000850182612b87565b506020820151612c646020850182612b87565b506040820151612c776040850182612b87565b50505050565b6000606082019050612c926000830184612c3b565b92915050565b600082825260208201905092915050565b6000612cb482612665565b612cbe8185612c98565b9350612cce818560208601612681565b612cd7816126ab565b840191505092915050565b606082016000820151612cf86000850182612b87565b506020820151612d0b6020850182612b87565b506040820151612d1e6040850182612b87565b50505050565b612d2d8161279a565b82525050565b600060c083016000830151612d4b6000860182612b87565b5060208301518482036020860152612d638282612ca9565b9150506040830151612d786040860182612ce2565b506060830151612d8b60a0860182612d24565b508091505092915050565b60006020820190508181036000830152612db08184612d33565b905092915050565b600081519050919050565b600082825260208201905092915050565b6000819050602082019050919050565b600060c083016000830151612dfc6000860182612b87565b5060208301518482036020860152612e148282612ca9565b9150506040830151612e296040860182612ce2565b506060830151612e3c60a0860182612d24565b508091505092915050565b6000612e538383612de4565b905092915050565b6000602082019050919050565b6000612e7382612db8565b612e7d8185612dc3565b935083602082028501612e8f85612dd4565b8060005b85811015612ecb5784840389528151612eac8582612e47565b9450612eb783612e5b565b925060208a01995050600181019050612e93565b50829750879550505050505092915050565b60006020820190508181036000830152612ef78184612e68565b905092915050565b612f088161262f565b8114612f1357600080fd5b50565b600081359050612f2581612eff565b92915050565b60008060408385031215612f4257612f416125a0565b5b6000612f50858286016127ed565b9250506020612f6185828601612f16565b9150509250929050565b600067ffffffffffffffff821115612f8657612f85612892565b5b612f8f826126ab565b9050602081019050919050565b6000612faf612faa84612f6b565b6128f2565b905082815260208101848484011115612fcb57612fca61288d565b5b612fd684828561293e565b509392505050565b600082601f830112612ff357612ff2612888565b5b8135613003848260208601612f9c565b91505092915050565b60008060008060808587031215613026576130256125a0565b5b6000613034878288016127ed565b9450506020613045878288016127ed565b935050604061305687828801612738565b925050606085013567ffffffffffffffff811115613077576130766125a5565b5b61308387828801612fde565b91505092959194509250565b600080604083850312156130a6576130a56125a0565b5b60006130b4858286016127ed565b92505060206130c5858286016127ed565b9150509250929050565b7f4e487b7100000000000000000000000000000000000000000000000000000000600052602260045260246000fd5b6000600282049050600182168061311657607f821691505b602082108103613129576131286130cf565b5b50919050565b60008190508160005260206000209050919050565b60006020601f8301049050919050565b600082821b905092915050565b6000600883026131917fffffffffffffffffffffffffffffffffffffffffffffffffffffffffffffffff82613154565b61319b8683613154565b95508019841693508086168417925050509392505050565b6000819050919050565b60006131d86131d36131ce84612717565b6131b3565b612717565b9050919050565b6000819050919050565b6131f2836131bd565b6132066131fe826131df565b848454613161565b825550505050565b600090565b61321b61320e565b6132268184846131e9565b505050565b5b8181101561324a5761323f600082613213565b60018101905061322c565b5050565b601f82111561328f576132608161312f565b61326984613144565b81016020851015613278578190505b61328c61328485613144565b83018261322b565b50505b505050565b600082821c905092915050565b60006132b260001984600802613294565b1980831691505092915050565b60006132cb83836132a1565b9150826002028217905092915050565b6132e482612665565b67ffffffffffffffff8111156132fd576132fc612892565b5b61330782546130fe565b61331282828561324e565b600060209050601f8311600181146133455760008415613333578287015190505b61333d85826132bf565b8655506133a5565b601f1984166133538661312f565b60005b8281101561337b57848901518255600182019150602085019450602081019050613356565b868310156133985784890151613394601f8916826132a1565b8355505b6001600288020188555050505b505050505050565b60006060820190506133c260008301866127ac565b6133cf6020830185612842565b6133dc60408301846127ac565b949350505050565b7f4e6f7420746f6b656e206f776e65720000000000000000000000000000000000600082015250565b600061341a600f83612670565b9150613425826133e4565b602082019050919050565b600060208201905081810360008301526134498161340d565b9050919050565b7f496e76616c696420737461746520555249000000000000000000000000000000600082015250565b6000613486601183612670565b915061349182613450565b602082019050919050565b600060208201905081810360008301526134b581613479565b9050919050565b7f4e487b7100000000000000000000000000000000000000000000000000000000600052601160045260246000fd5b60006134f682612717565b915061350183612717565b9250828201905080821115613519576135186134bc565b5b92915050565b7f496e76616c696420737461746500000000000000000000000000000000000000600082015250565b6000613555600d83612670565b91506135608261351f565b602082019050919050565b6000602082019050818103600083015261358481613548565b9050919050565b60006040820190506135a06000830185612842565b81810360208301526135b281846126bc565b90509392505050565b60006135c682612717565b91507fffffffffffffffffffffffffffffffffffffffffffffffffffffffffffffffff82036135f8576135f76134bc565b5b600182019050919050565b7f4e487b7100000000000000000000000000000000000000000000000000000000600052603260045260246000fd5b7f546f6b656e20646f6573206e6f74206578697374000000000000000000000000600082015250565b6000613668601483612670565b915061367382613632565b602082019050919050565b600060208201905081810360008301526136978161365b565b9050919050565b600081905092915050565b60006136b482612665565b6136be818561369e565b93506136ce818560208601612681565b80840191505092915050565b60006136e682856136a9565b91506136f282846136a9565b91508190509392505050565b600081519050919050565b600082825260208201905092915050565b6000613725826136fe565b61372f8185613709565b935061373f818560208601612681565b613748816126ab565b840191505092915050565b600060808201905061376860008301876127ac565b61377560208301866127ac565b6137826040830185612842565b8181036060830152613794818461371a565b905095945050505050565b6000815190506137ae816125d6565b92915050565b6000602082840312156137ca576137c96125a0565b5b60006137d88482850161379f565b91505092915050565b60006040820190506137f660008301856127ac565b6138036020830184612842565b9392505050565b7f4e487b7100000000000000000000000000000000000000000000000000000000600052601260045260246000fdfea2646970667358221220fd3ded8b2dcbdca28e9ccc360b1242c63ef095801390ba5baf2f9d6a66a583f964736f6c634300081c003368747470733a2f2f707572706c652d696d70726f7665642d686970706f706f74616d75732d3936302e6d7970696e6174612e636c6f75642f697066732f6261666b72656964763570666a6a6d6970703679656b6e6872376a7674616869686f64767437326f737268636632626c74323235327675676d6e6d68747470733a2f2f707572706c652d696d70726f7665642d686970706f706f74616d75732d3936302e6d7970696e6174612e636c6f75642f697066732f6261666b7265696566777875696f3272336473677467786171656467727765346a343262716a3461636f6f666b6236356b6d726f7036346f7a796168747470733a2f2f707572706c652d696d70726f7665642d686970706f706f74616d75732d3936302e6d7970696e6174612e636c6f75642f697066732f6261666b7265696763717966333336706232623466737165796e7737747037626c6370796777746d6d346e647662737175736d6b7a676872646c61",
  "linkReferences": {},
  "deployedLinkReferences": {}
}