{
  "_format": "hh-sol-artifact-1",
  "contractName": "DynamicNFT",
  "sourceName": "contracts/DynamicNFT.sol",
  "abi": [
    {
      "inputs": [],
      "stateMutability": "nonpayable",
      "type": "constructor"
    },
    {
      "inputs": [
        {
          "internalType": "address",
          "name": "sender",
          "type": "address"
        },
        {
          "internalType": "uint256",
          "name": "balance",
          "type": "uint256"
        },
        {
          "internalType": "uint256",
          "name": "needed",
          "type": "uint256"
        },
        {
          "internalType": "uint256",
          "name": "tokenId",
          "type": "uint256"
        }
      ],
      "name": "ERC1155InsufficientBalance",
      "type": "error"
    },
    {
      "inputs": [
        {
          "internalType": "address",
          "name": "approver",
          "type": "address"
        }
      ],
      "name": "ERC1155InvalidApprover",
      "type": "error"
    },
    {
      "inputs": [
        {
          "internalType": "uint256",
          "name": "idsLength",
          "type": "uint256"
        },
        {
          "internalType": "uint256",
          "name": "valuesLength",
          "type": "uint256"
        }
      ],
      "name": "ERC1155InvalidArrayLength",
      "type": "error"
    },
    {
      "inputs": [
        {
          "internalType": "address",
          "name": "operator",
          "type": "address"
        }
      ],
      "name": "ERC1155InvalidOperator",
      "type": "error"
    },
    {
      "inputs": [
        {
          "internalType": "address",
          "name": "receiver",
          "type": "address"
        }
      ],
      "name": "ERC1155InvalidReceiver",
      "type": "error"
    },
    {
      "inputs": [
        {
          "internalType": "address",
          "name": "sender",
          "type": "address"
        }
      ],
      "name": "ERC1155InvalidSender",
      "type": "error"
    },
    {
      "inputs": [
        {
          "internalType": "address",
          "name": "operator",
          "type": "address"
        },
        {
          "internalType": "address",
          "name": "owner",
          "type": "address"
        }
      ],
      "name": "ERC1155MissingApprovalForAll",
      "type": "error"
    },
    {
      "inputs": [
        {
          "internalType": "address",
          "name": "owner",
          "type": "address"
        }
      ],
      "name": "OwnableInvalidOwner",
      "type": "error"
    },
    {
      "inputs": [
        {
          "internalType": "address",
          "name": "account",
          "type": "address"
        }
      ],
      "name": "OwnableUnauthorizedAccount",
      "type": "error"
    },
    {
      "anonymous": false,
      "inputs": [
        {
          "indexed": true,
          "internalType": "address",
          "name": "account",
          "type": "address"
        },
        {
          "indexed": true,
          "internalType": "address",
          "name": "operator",
          "type": "address"
        },
        {
          "indexed": false,
          "internalType": "bool",
          "name": "approved",
          "type": "bool"
        }
      ],
      "name": "ApprovalForAll",
      "type": "event"
    },
    {
      "anonymous": false,
      "inputs": [
        {
          "indexed": true,
          "internalType": "address",
          "name": "previousOwner",
          "type": "address"
        },
        {
          "indexed": true,
          "internalType": "address",
          "name": "newOwner",
          "type": "address"
        }
      ],
      "name": "OwnershipTransferred",
      "type": "event"
    },
    {
      "anonymous": false,
      "inputs": [
        {
          "indexed": true,
          "internalType": "uint256",
          "name": "tokenId",
          "type": "uint256"
        },
        {
          "indexed": true,
          "internalType": "address",
          "name": "owner",
          "type": "address"
        },
        {
          "indexed": false,
          "internalType": "uint256",
          "name": "maxScore",
          "type": "uint256"
        },
        {
          "indexed": false,
          "internalType": "uint256",
          "name": "stateId",
          "type": "uint256"
        },
        {
          "indexed": false,
          "internalType": "uint256",
          "name": "totalPlayTime",
          "type": "uint256"
        }
      ],
      "name": "StatsUpdated",
      "type": "event"
    },
    {
      "anonymous": false,
      "inputs": [
        {
          "indexed": true,
          "internalType": "address",
          "name": "operator",
          "type": "address"
        },
        {
          "indexed": true,
          "internalType": "address",
          "name": "from",
          "type": "address"
        },
        {
          "indexed": true,
          "internalType": "address",
          "name": "to",
          "type": "address"
        },
        {
          "indexed": false,
          "internalType": "uint256[]",
          "name": "ids",
          "type": "uint256[]"
        },
        {
          "indexed": false,
          "internalType": "uint256[]",
          "name": "values",
          "type": "uint256[]"
        }
      ],
      "name": "TransferBatch",
      "type": "event"
    },
    {
      "anonymous": false,
      "inputs": [
        {
          "indexed": true,
          "internalType": "address",
          "name": "operator",
          "type": "address"
        },
        {
          "indexed": true,
          "internalType": "address",
          "name": "from",
          "type": "address"
        },
        {
          "indexed": true,
          "internalType": "address",
          "name": "to",
          "type": "address"
        },
        {
          "indexed": false,
          "internalType": "uint256",
          "name": "id",
          "type": "uint256"
        },
        {
          "indexed": false,
          "internalType": "uint256",
          "name": "value",
          "type": "uint256"
        }
      ],
      "name": "TransferSingle",
      "type": "event"
    },
    {
      "anonymous": false,
      "inputs": [
        {
          "indexed": false,
          "internalType": "string",
          "name": "value",
          "type": "string"
        },
        {
          "indexed": true,
          "internalType": "uint256",
          "name": "id",
          "type": "uint256"
        }
      ],
      "name": "URI",
      "type": "event"
    },
    {
      "inputs": [
        {
          "internalType": "address",
          "name": "account",
          "type": "address"
        },
        {
          "internalType": "uint256",
          "name": "id",
          "type": "uint256"
        }
      ],
      "name": "balanceOf",
      "outputs": [
        {
          "internalType": "uint256",
          "name": "",
          "type": "uint256"
        }
      ],
      "stateMutability": "view",
      "type": "function"
    },
    {
      "inputs": [
        {
          "internalType": "address[]",
          "name": "accounts",
          "type": "address[]"
        },
        {
          "internalType": "uint256[]",
          "name": "ids",
          "type": "uint256[]"
        }
      ],
      "name": "balanceOfBatch",
      "outputs": [
        {
          "internalType": "uint256[]",
          "name": "",
          "type": "uint256[]"
        }
      ],
      "stateMutability": "view",
      "type": "function"
    },
    {
      "inputs": [
        {
          "internalType": "uint256",
          "name": "",
          "type": "uint256"
        }
      ],
      "name": "dnftStats",
      "outputs": [
        {
          "internalType": "uint256",
          "name": "maxScore",
          "type": "uint256"
        },
        {
          "internalType": "uint256",
          "name": "stateId",
          "type": "uint256"
        },
        {
          "internalType": "uint256",
          "name": "playTime",
          "type": "uint256"
        }
      ],
      "stateMutability": "view",
      "type": "function"
    },
    {
      "inputs": [
        {
          "internalType": "uint256",
          "name": "tokenId",
          "type": "uint256"
        }
      ],
      "name": "getStats",
      "outputs": [
        {
          "components": [
            {
              "internalType": "uint256",
              "name": "maxScore",
              "type": "uint256"
            },
            {
              "internalType": "uint256",
              "name": "stateId",
              "type": "uint256"
            },
            {
              "internalType": "uint256",
              "name": "playTime",
              "type": "uint256"
            }
          ],
          "internalType": "struct DynamicNFT.PlayerStats",
          "name": "",
          "type": "tuple"
        }
      ],
      "stateMutability": "view",
      "type": "function"
    },
    {
      "inputs": [
        {
          "internalType": "address",
          "name": "account",
          "type": "address"
        },
        {
          "internalType": "address",
          "name": "operator",
          "type": "address"
        }
      ],
      "name": "isApprovedForAll",
      "outputs": [
        {
          "internalType": "bool",
          "name": "",
          "type": "bool"
        }
      ],
      "stateMutability": "view",
      "type": "function"
    },
    {
      "inputs": [
        {
          "internalType": "address",
          "name": "to",
          "type": "address"
        },
        {
          "internalType": "uint256",
          "name": "_maxScore",
          "type": "uint256"
        }
      ],
      "name": "mint",
      "outputs": [
        {
          "internalType": "uint256",
          "name": "",
          "type": "uint256"
        }
      ],
      "stateMutability": "nonpayable",
      "type": "function"
    },
    {
      "inputs": [],
      "name": "nextTokenId",
      "outputs": [
        {
          "internalType": "uint256",
          "name": "",
          "type": "uint256"
        }
      ],
      "stateMutability": "view",
      "type": "function"
    },
    {
      "inputs": [],
      "name": "owner",
      "outputs": [
        {
          "internalType": "address",
          "name": "",
          "type": "address"
        }
      ],
      "stateMutability": "view",
      "type": "function"
    },
    {
      "inputs": [],
      "name": "renounceOwnership",
      "outputs": [],
      "stateMutability": "nonpayable",
      "type": "function"
    },
    {
      "inputs": [
        {
          "internalType": "address",
          "name": "from",
          "type": "address"
        },
        {
          "internalType": "address",
          "name": "to",
          "type": "address"
        },
        {
          "internalType": "uint256[]",
          "name": "ids",
          "type": "uint256[]"
        },
        {
          "internalType": "uint256[]",
          "name": "values",
          "type": "uint256[]"
        },
        {
          "internalType": "bytes",
          "name": "data",
          "type": "bytes"
        }
      ],
      "name": "safeBatchTransferFrom",
      "outputs": [],
      "stateMutability": "nonpayable",
      "type": "function"
    },
    {
      "inputs": [
        {
          "internalType": "address",
          "name": "from",
          "type": "address"
        },
        {
          "internalType": "address",
          "name": "to",
          "type": "address"
        },
        {
          "internalType": "uint256",
          "name": "id",
          "type": "uint256"
        },
        {
          "internalType": "uint256",
          "name": "value",
          "type": "uint256"
        },
        {
          "internalType": "bytes",
          "name": "data",
          "type": "bytes"
        }
      ],
      "name": "safeTransferFrom",
      "outputs": [],
      "stateMutability": "nonpayable",
      "type": "function"
    },
    {
      "inputs": [
        {
          "internalType": "address",
          "name": "operator",
          "type": "address"
        },
        {
          "internalType": "bool",
          "name": "approved",
          "type": "bool"
        }
      ],
      "name": "setApprovalForAll",
      "outputs": [],
      "stateMutability": "nonpayable",
      "type": "function"
    },
    {
      "inputs": [
        {
          "internalType": "bytes4",
          "name": "interfaceId",
          "type": "bytes4"
        }
      ],
      "name": "supportsInterface",
      "outputs": [
        {
          "internalType": "bool",
          "name": "",
          "type": "bool"
        }
      ],
      "stateMutability": "view",
      "type": "function"
    },
    {
      "inputs": [
        {
          "internalType": "address",
          "name": "newOwner",
          "type": "address"
        }
      ],
      "name": "transferOwnership",
      "outputs": [],
      "stateMutability": "nonpayable",
      "type": "function"
    },
    {
      "inputs": [
        {
          "internalType": "uint256",
          "name": "tokenId",
          "type": "uint256"
        },
        {
          "internalType": "uint256",
          "name": "score",
          "type": "uint256"
        },
        {
          "internalType": "uint256",
          "name": "state",
          "type": "uint256"
        },
        {
          "internalType": "uint256",
          "name": "playTime",
          "type": "uint256"
        }
      ],
      "name": "updateStats",
      "outputs": [],
      "stateMutability": "nonpayable",
      "type": "function"
    },
    {
      "inputs": [
        {
          "internalType": "uint256",
          "name": "",
          "type": "uint256"
        }
      ],
      "name": "uri",
      "outputs": [
        {
          "internalType": "string",
          "name": "",
          "type": "string"
        }
      ],
      "stateMutability": "view",
      "type": "function"
    }
  ],
  "bytecode": "0x608060405234801561001057600080fd5b5033604051806060016040528060268152602001612c5d6026913961003a816100c260201b60201c565b50600073ffffffffffffffffffffffffffffffffffffffff168173ffffffffffffffffffffffffffffffffffffffff16036100ad5760006040517f1e4fbdf70000000000000000000000000000000000000000000000000000000081526004016100a491906101dc565b60405180910390fd5b6100bc816100d560201b60201c565b50610519565b80600290816100d19190610447565b5050565b6000600360009054906101000a900473ffffffffffffffffffffffffffffffffffffffff16905081600360006101000a81548173ffffffffffffffffffffffffffffffffffffffff021916908373ffffffffffffffffffffffffffffffffffffffff1602179055508173ffffffffffffffffffffffffffffffffffffffff168173ffffffffffffffffffffffffffffffffffffffff167f8be0079c531659141344cd1fd0a4f28419497f9722a3daafe3b4186f6b6457e060405160405180910390a35050565b600073ffffffffffffffffffffffffffffffffffffffff82169050919050565b60006101c68261019b565b9050919050565b6101d6816101bb565b82525050565b60006020820190506101f160008301846101cd565b92915050565b600081519050919050565b7f4e487b7100000000000000000000000000000000000000000000000000000000600052604160045260246000fd5b7f4e487b7100000000000000000000000000000000000000000000000000000000600052602260045260246000fd5b6000600282049050600182168061027857607f821691505b60208210810361028b5761028a610231565b5b50919050565b60008190508160005260206000209050919050565b60006020601f8301049050919050565b600082821b905092915050565b6000600883026102f37fffffffffffffffffffffffffffffffffffffffffffffffffffffffffffffffff826102b6565b6102fd86836102b6565b95508019841693508086168417925050509392505050565b6000819050919050565b6000819050919050565b600061034461033f61033a84610315565b61031f565b610315565b9050919050565b6000819050919050565b61035e83610329565b61037261036a8261034b565b8484546102c3565b825550505050565b600090565b61038761037a565b610392818484610355565b505050565b5b818110156103b6576103ab60008261037f565b600181019050610398565b5050565b601f8211156103fb576103cc81610291565b6103d5846102a6565b810160208510156103e4578190505b6103f86103f0856102a6565b830182610397565b50505b505050565b600082821c905092915050565b600061041e60001984600802610400565b1980831691505092915050565b6000610437838361040d565b9150826002028217905092915050565b610450826101f7565b67ffffffffffffffff81111561046957610468610202565b5b6104738254610260565b61047e8282856103ba565b600060209050601f8311600181146104b1576000841561049f578287015190505b6104a9858261042b565b865550610511565b601f1984166104bf86610291565b60005b828110156104e7578489015182556001820191506020850194506020810190506104c2565b868310156105045784890151610500601f89168261040d565b8355505b6001600288020188555050505b505050505050565b612735806105286000396000f3fe608060405234801561001057600080fd5b50600436106100ff5760003560e01c8063715018a611610097578063a22cb46511610066578063a22cb465146102d4578063e985e9c5146102f0578063f242432a14610320578063f2fde38b1461033c576100ff565b8063715018a61461025e57806375794a3c146102685780637b303965146102865780638da5cb5b146102b6576100ff565b806326dbbcc3116100d357806326dbbcc3146101c65780632eb2c2d6146101e257806340c10f19146101fe5780634e1273f41461022e576100ff565b8062fdd58e1461010457806301ffc9a7146101345780630e89341c1461016457806316cb4cf514610194575b600080fd5b61011e600480360381019061011991906119b2565b610358565b60405161012b9190611a01565b60405180910390f35b61014e60048036038101906101499190611a74565b6103b2565b60405161015b9190611abc565b60405180910390f35b61017e60048036038101906101799190611ad7565b610494565b60405161018b9190611b94565b60405180910390f35b6101ae60048036038101906101a99190611ad7565b610528565b6040516101bd93929190611bb6565b60405180910390f35b6101e060048036038101906101db9190611bed565b610552565b005b6101fc60048036038101906101f79190611e51565b610655565b005b610218600480360381019061021391906119b2565b6106fd565b6040516102259190611a01565b60405180910390f35b61024860048036038101906102439190611fe3565b610794565b6040516102559190612119565b60405180910390f35b61026661089d565b005b6102706108b1565b60405161027d9190611a01565b60405180910390f35b6102a0600480360381019061029b9190611ad7565b6108b7565b6040516102ad919061217d565b60405180910390f35b6102be610902565b6040516102cb91906121a7565b60405180910390f35b6102ee60048036038101906102e991906121ee565b61092c565b005b61030a6004803603810190610305919061222e565b610942565b6040516103179190611abc565b60405180910390f35b61033a6004803603810190610335919061226e565b6109d6565b005b61035660048036038101906103519190612305565b610a7e565b005b600080600083815260200190815260200160002060008473ffffffffffffffffffffffffffffffffffffffff1673ffffffffffffffffffffffffffffffffffffffff16815260200190815260200160002054905092915050565b60007fd9b67a26000000000000000000000000000000000000000000000000000000007bffffffffffffffffffffffffffffffffffffffffffffffffffffffff1916827bffffffffffffffffffffffffffffffffffffffffffffffffffffffff1916148061047d57507f0e89341c000000000000000000000000000000000000000000000000000000007bffffffffffffffffffffffffffffffffffffffffffffffffffffffff1916827bffffffffffffffffffffffffffffffffffffffffffffffffffffffff1916145b8061048d575061048c82610b04565b5b9050919050565b6060600280546104a390612361565b80601f01602080910402602001604051908101604052809291908181526020018280546104cf90612361565b801561051c5780601f106104f15761010080835404028352916020019161051c565b820191906000526020600020905b8154815290600101906020018083116104ff57829003601f168201915b50505050509050919050565b60046020528060005260406000206000915090508060000154908060010154908060020154905083565b600061055e3386610358565b1161059e576040517f08c379a0000000000000000000000000000000000000000000000000000000008152600401610595906123de565b60405180910390fd5b600060046000868152602001908152602001600020905080600001548411156105cb578381600001819055505b828160010181905550818160020160008282546105e8919061242d565b925050819055503373ffffffffffffffffffffffffffffffffffffffff16857f5fc71ebad6e6dd7b877691d6c01768232bd850b648b45eece8acd170d27ea52283600001548460010154856002015460405161064693929190611bb6565b60405180910390a35050505050565b600061065f610b6e565b90508073ffffffffffffffffffffffffffffffffffffffff168673ffffffffffffffffffffffffffffffffffffffff16141580156106a457506106a28682610942565b155b156106e85780866040517fe237d9220000000000000000000000000000000000000000000000000000000081526004016106df929190612461565b60405180910390fd5b6106f58686868686610b76565b505050505050565b6000806005549050600560008154809291906107189061248a565b919050555060405180606001604052808481526020016000815260200160008152506004600083815260200190815260200160002060008201518160000155602082015181600101556040820151816002015590505061078a8482600160405180602001604052806000815250610c6e565b8091505092915050565b606081518351146107e057815183516040517f5b0599910000000000000000000000000000000000000000000000000000000081526004016107d79291906124d2565b60405180910390fd5b6000835167ffffffffffffffff8111156107fd576107fc611c59565b5b60405190808252806020026020018201604052801561082b5781602001602082028036833780820191505090505b50905060005b8451811015610892576108686108508287610d0790919063ffffffff16565b6108638387610d1b90919063ffffffff16565b610358565b82828151811061087b5761087a6124fb565b5b602002602001018181525050806001019050610831565b508091505092915050565b6108a5610d2f565b6108af6000610db6565b565b60055481565b6108bf6118e9565b6004600083815260200190815260200160002060405180606001604052908160008201548152602001600182015481526020016002820154815250509050919050565b6000600360009054906101000a900473ffffffffffffffffffffffffffffffffffffffff16905090565b61093e610937610b6e565b8383610e7c565b5050565b6000600160008473ffffffffffffffffffffffffffffffffffffffff1673ffffffffffffffffffffffffffffffffffffffff16815260200190815260200160002060008373ffffffffffffffffffffffffffffffffffffffff1673ffffffffffffffffffffffffffffffffffffffff16815260200190815260200160002060009054906101000a900460ff16905092915050565b60006109e0610b6e565b90508073ffffffffffffffffffffffffffffffffffffffff168673ffffffffffffffffffffffffffffffffffffffff1614158015610a255750610a238682610942565b155b15610a695780866040517fe237d922000000000000000000000000000000000000000000000000000000008152600401610a60929190612461565b60405180910390fd5b610a768686868686610fec565b505050505050565b610a86610d2f565b600073ffffffffffffffffffffffffffffffffffffffff168173ffffffffffffffffffffffffffffffffffffffff1603610af85760006040517f1e4fbdf7000000000000000000000000000000000000000000000000000000008152600401610aef91906121a7565b60405180910390fd5b610b0181610db6565b50565b60007f01ffc9a7000000000000000000000000000000000000000000000000000000007bffffffffffffffffffffffffffffffffffffffffffffffffffffffff1916827bffffffffffffffffffffffffffffffffffffffffffffffffffffffff1916149050919050565b600033905090565b600073ffffffffffffffffffffffffffffffffffffffff168473ffffffffffffffffffffffffffffffffffffffff1603610be85760006040517f57f447ce000000000000000000000000000000000000000000000000000000008152600401610bdf91906121a7565b60405180910390fd5b600073ffffffffffffffffffffffffffffffffffffffff168573ffffffffffffffffffffffffffffffffffffffff1603610c5a5760006040517f01a83514000000000000000000000000000000000000000000000000000000008152600401610c5191906121a7565b60405180910390fd5b610c6785858585856110f7565b5050505050565b600073ffffffffffffffffffffffffffffffffffffffff168473ffffffffffffffffffffffffffffffffffffffff1603610ce05760006040517f57f447ce000000000000000000000000000000000000000000000000000000008152600401610cd791906121a7565b60405180910390fd5b600080610ced85856111a9565b91509150610cff6000878484876110f7565b505050505050565b600060208202602084010151905092915050565b600060208202602084010151905092915050565b610d37610b6e565b73ffffffffffffffffffffffffffffffffffffffff16610d55610902565b73ffffffffffffffffffffffffffffffffffffffff1614610db457610d78610b6e565b6040517f118cdaa7000000000000000000000000000000000000000000000000000000008152600401610dab91906121a7565b60405180910390fd5b565b6000600360009054906101000a900473ffffffffffffffffffffffffffffffffffffffff16905081600360006101000a81548173ffffffffffffffffffffffffffffffffffffffff021916908373ffffffffffffffffffffffffffffffffffffffff1602179055508173ffffffffffffffffffffffffffffffffffffffff168173ffffffffffffffffffffffffffffffffffffffff167f8be0079c531659141344cd1fd0a4f28419497f9722a3daafe3b4186f6b6457e060405160405180910390a35050565b600073ffffffffffffffffffffffffffffffffffffffff168273ffffffffffffffffffffffffffffffffffffffff1603610eee5760006040517fced3e100000000000000000000000000000000000000000000000000000000008152600401610ee591906121a7565b60405180910390fd5b80600160008573ffffffffffffffffffffffffffffffffffffffff1673ffffffffffffffffffffffffffffffffffffffff16815260200190815260200160002060008473ffffffffffffffffffffffffffffffffffffffff1673ffffffffffffffffffffffffffffffffffffffff16815260200190815260200160002060006101000a81548160ff0219169083151502179055508173ffffffffffffffffffffffffffffffffffffffff168373ffffffffffffffffffffffffffffffffffffffff167f17307eab39ab6107e8899845ad3d59bd9653f200f220920489ca2b5937696c3183604051610fdf9190611abc565b60405180910390a3505050565b600073ffffffffffffffffffffffffffffffffffffffff168473ffffffffffffffffffffffffffffffffffffffff160361105e5760006040517f57f447ce00000000000000000000000000000000000000000000000000000000815260040161105591906121a7565b60405180910390fd5b600073ffffffffffffffffffffffffffffffffffffffff168573ffffffffffffffffffffffffffffffffffffffff16036110d05760006040517f01a835140000000000000000000000000000000000000000000000000000000081526004016110c791906121a7565b60405180910390fd5b6000806110dd85856111a9565b915091506110ee87878484876110f7565b50505050505050565b611103858585856111d9565b600073ffffffffffffffffffffffffffffffffffffffff168473ffffffffffffffffffffffffffffffffffffffff16146111a2576000611141610b6e565b90506001845103611191576000611162600086610d1b90919063ffffffff16565b9050600061117a600086610d1b90919063ffffffff16565b905061118a838989858589611581565b50506111a0565b61119f818787878787611735565b5b505b5050505050565b60608060405191506001825283602083015260408201905060018152826020820152604081016040529250929050565b805182511461122357815181516040517f5b05999100000000000000000000000000000000000000000000000000000000815260040161121a9291906124d2565b60405180910390fd5b600061122d610b6e565b905060005b835181101561143c5760006112508286610d1b90919063ffffffff16565b905060006112678386610d1b90919063ffffffff16565b9050600073ffffffffffffffffffffffffffffffffffffffff168873ffffffffffffffffffffffffffffffffffffffff161461139457600080600084815260200190815260200160002060008a73ffffffffffffffffffffffffffffffffffffffff1673ffffffffffffffffffffffffffffffffffffffff1681526020019081526020016000205490508181101561133c57888183856040517f03dee4c5000000000000000000000000000000000000000000000000000000008152600401611333949392919061252a565b60405180910390fd5b81810360008085815260200190815260200160002060008b73ffffffffffffffffffffffffffffffffffffffff1673ffffffffffffffffffffffffffffffffffffffff16815260200190815260200160002081905550505b600073ffffffffffffffffffffffffffffffffffffffff168773ffffffffffffffffffffffffffffffffffffffff161461142f578060008084815260200190815260200160002060008973ffffffffffffffffffffffffffffffffffffffff1673ffffffffffffffffffffffffffffffffffffffff1681526020019081526020016000206000828254611427919061242d565b925050819055505b5050806001019050611232565b5060018351036114fb57600061145c600085610d1b90919063ffffffff16565b90506000611474600085610d1b90919063ffffffff16565b90508573ffffffffffffffffffffffffffffffffffffffff168773ffffffffffffffffffffffffffffffffffffffff168473ffffffffffffffffffffffffffffffffffffffff167fc3d58168c5ae7397731d063d5bbf3d657854427343f4c083240f7aacaa2d0f6285856040516114ec9291906124d2565b60405180910390a4505061157a565b8373ffffffffffffffffffffffffffffffffffffffff168573ffffffffffffffffffffffffffffffffffffffff168273ffffffffffffffffffffffffffffffffffffffff167f4a39dc06d4c0dbc64b70af90fd698a233a518aa5d07e595d983b8c0526c8f7fb868660405161157192919061256f565b60405180910390a45b5050505050565b60008473ffffffffffffffffffffffffffffffffffffffff163b111561172d578373ffffffffffffffffffffffffffffffffffffffff1663f23a6e6187878686866040518663ffffffff1660e01b81526004016115e29594939291906125fb565b6020604051808303816000875af192505050801561161e57506040513d601f19601f8201168201806040525081019061161b919061266a565b60015b6116a2573d806000811461164e576040519150601f19603f3d011682016040523d82523d6000602084013e611653565b606091505b50600081510361169a57846040517f57f447ce00000000000000000000000000000000000000000000000000000000815260040161169191906121a7565b60405180910390fd5b805181602001fd5b63f23a6e6160e01b7bffffffffffffffffffffffffffffffffffffffffffffffffffffffff1916817bffffffffffffffffffffffffffffffffffffffffffffffffffffffff19161461172b57846040517f57f447ce00000000000000000000000000000000000000000000000000000000815260040161172291906121a7565b60405180910390fd5b505b505050505050565b60008473ffffffffffffffffffffffffffffffffffffffff163b11156118e1578373ffffffffffffffffffffffffffffffffffffffff1663bc197c8187878686866040518663ffffffff1660e01b8152600401611796959493929190612697565b6020604051808303816000875af19250505080156117d257506040513d601f19601f820116820180604052508101906117cf919061266a565b60015b611856573d8060008114611802576040519150601f19603f3d011682016040523d82523d6000602084013e611807565b606091505b50600081510361184e57846040517f57f447ce00000000000000000000000000000000000000000000000000000000815260040161184591906121a7565b60405180910390fd5b805181602001fd5b63bc197c8160e01b7bffffffffffffffffffffffffffffffffffffffffffffffffffffffff1916817bffffffffffffffffffffffffffffffffffffffffffffffffffffffff1916146118df57846040517f57f447ce0000000000000000000000000000000000000000000000000000000081526004016118d691906121a7565b60405180910390fd5b505b505050505050565b60405180606001604052806000815260200160008152602001600081525090565b6000604051905090565b600080fd5b600080fd5b600073ffffffffffffffffffffffffffffffffffffffff82169050919050565b60006119498261191e565b9050919050565b6119598161193e565b811461196457600080fd5b50565b60008135905061197681611950565b92915050565b6000819050919050565b61198f8161197c565b811461199a57600080fd5b50565b6000813590506119ac81611986565b92915050565b600080604083850312156119c9576119c8611914565b5b60006119d785828601611967565b92505060206119e88582860161199d565b9150509250929050565b6119fb8161197c565b82525050565b6000602082019050611a1660008301846119f2565b92915050565b60007fffffffff0000000000000000000000000000000000000000000000000000000082169050919050565b611a5181611a1c565b8114611a5c57600080fd5b50565b600081359050611a6e81611a48565b92915050565b600060208284031215611a8a57611a89611914565b5b6000611a9884828501611a5f565b91505092915050565b60008115159050919050565b611ab681611aa1565b82525050565b6000602082019050611ad16000830184611aad565b92915050565b600060208284031215611aed57611aec611914565b5b6000611afb8482850161199d565b91505092915050565b600081519050919050565b600082825260208201905092915050565b60005b83811015611b3e578082015181840152602081019050611b23565b60008484015250505050565b6000601f19601f8301169050919050565b6000611b6682611b04565b611b708185611b0f565b9350611b80818560208601611b20565b611b8981611b4a565b840191505092915050565b60006020820190508181036000830152611bae8184611b5b565b905092915050565b6000606082019050611bcb60008301866119f2565b611bd860208301856119f2565b611be560408301846119f2565b949350505050565b60008060008060808587031215611c0757611c06611914565b5b6000611c158782880161199d565b9450506020611c268782880161199d565b9350506040611c378782880161199d565b9250506060611c488782880161199d565b91505092959194509250565b600080fd5b7f4e487b7100000000000000000000000000000000000000000000000000000000600052604160045260246000fd5b611c9182611b4a565b810181811067ffffffffffffffff82111715611cb057611caf611c59565b5b80604052505050565b6000611cc361190a565b9050611ccf8282611c88565b919050565b600067ffffffffffffffff821115611cef57611cee611c59565b5b602082029050602081019050919050565b600080fd5b6000611d18611d1384611cd4565b611cb9565b90508083825260208201905060208402830185811115611d3b57611d3a611d00565b5b835b81811015611d645780611d50888261199d565b845260208401935050602081019050611d3d565b5050509392505050565b600082601f830112611d8357611d82611c54565b5b8135611d93848260208601611d05565b91505092915050565b600080fd5b600067ffffffffffffffff821115611dbc57611dbb611c59565b5b611dc582611b4a565b9050602081019050919050565b82818337600083830152505050565b6000611df4611def84611da1565b611cb9565b905082815260208101848484011115611e1057611e0f611d9c565b5b611e1b848285611dd2565b509392505050565b600082601f830112611e3857611e37611c54565b5b8135611e48848260208601611de1565b91505092915050565b600080600080600060a08688031215611e6d57611e6c611914565b5b6000611e7b88828901611967565b9550506020611e8c88828901611967565b945050604086013567ffffffffffffffff811115611ead57611eac611919565b5b611eb988828901611d6e565b935050606086013567ffffffffffffffff811115611eda57611ed9611919565b5b611ee688828901611d6e565b925050608086013567ffffffffffffffff811115611f0757611f06611919565b5b611f1388828901611e23565b9150509295509295909350565b600067ffffffffffffffff821115611f3b57611f3a611c59565b5b602082029050602081019050919050565b6000611f5f611f5a84611f20565b611cb9565b90508083825260208201905060208402830185811115611f8257611f81611d00565b5b835b81811015611fab5780611f978882611967565b845260208401935050602081019050611f84565b5050509392505050565b600082601f830112611fca57611fc9611c54565b5b8135611fda848260208601611f4c565b91505092915050565b60008060408385031215611ffa57611ff9611914565b5b600083013567ffffffffffffffff81111561201857612017611919565b5b61202485828601611fb5565b925050602083013567ffffffffffffffff81111561204557612044611919565b5b61205185828601611d6e565b9150509250929050565b600081519050919050565b600082825260208201905092915050565b6000819050602082019050919050565b6120908161197c565b82525050565b60006120a28383612087565b60208301905092915050565b6000602082019050919050565b60006120c68261205b565b6120d08185612066565b93506120db83612077565b8060005b8381101561210c5781516120f38882612096565b97506120fe836120ae565b9250506001810190506120df565b5085935050505092915050565b6000602082019050818103600083015261213381846120bb565b905092915050565b6060820160008201516121516000850182612087565b5060208201516121646020850182612087565b5060408201516121776040850182612087565b50505050565b6000606082019050612192600083018461213b565b92915050565b6121a18161193e565b82525050565b60006020820190506121bc6000830184612198565b92915050565b6121cb81611aa1565b81146121d657600080fd5b50565b6000813590506121e8816121c2565b92915050565b6000806040838503121561220557612204611914565b5b600061221385828601611967565b9250506020612224858286016121d9565b9150509250929050565b6000806040838503121561224557612244611914565b5b600061225385828601611967565b925050602061226485828601611967565b9150509250929050565b600080600080600060a0868803121561228a57612289611914565b5b600061229888828901611967565b95505060206122a988828901611967565b94505060406122ba8882890161199d565b93505060606122cb8882890161199d565b925050608086013567ffffffffffffffff8111156122ec576122eb611919565b5b6122f888828901611e23565b9150509295509295909350565b60006020828403121561231b5761231a611914565b5b600061232984828501611967565b91505092915050565b7f4e487b7100000000000000000000000000000000000000000000000000000000600052602260045260246000fd5b6000600282049050600182168061237957607f821691505b60208210810361238c5761238b612332565b5b50919050565b7f4e6f7420746f6b656e206f776e65720000000000000000000000000000000000600082015250565b60006123c8600f83611b0f565b91506123d382612392565b602082019050919050565b600060208201905081810360008301526123f7816123bb565b9050919050565b7f4e487b7100000000000000000000000000000000000000000000000000000000600052601160045260246000fd5b60006124388261197c565b91506124438361197c565b925082820190508082111561245b5761245a6123fe565b5b92915050565b60006040820190506124766000830185612198565b6124836020830184612198565b9392505050565b60006124958261197c565b91507fffffffffffffffffffffffffffffffffffffffffffffffffffffffffffffffff82036124c7576124c66123fe565b5b600182019050919050565b60006040820190506124e760008301856119f2565b6124f460208301846119f2565b9392505050565b7f4e487b7100000000000000000000000000000000000000000000000000000000600052603260045260246000fd5b600060808201905061253f6000830187612198565b61254c60208301866119f2565b61255960408301856119f2565b61256660608301846119f2565b95945050505050565b6000604082019050818103600083015261258981856120bb565b9050818103602083015261259d81846120bb565b90509392505050565b600081519050919050565b600082825260208201905092915050565b60006125cd826125a6565b6125d781856125b1565b93506125e7818560208601611b20565b6125f081611b4a565b840191505092915050565b600060a0820190506126106000830188612198565b61261d6020830187612198565b61262a60408301866119f2565b61263760608301856119f2565b818103608083015261264981846125c2565b90509695505050505050565b60008151905061266481611a48565b92915050565b6000602082840312156126805761267f611914565b5b600061268e84828501612655565b91505092915050565b600060a0820190506126ac6000830188612198565b6126b96020830187612198565b81810360408301526126cb81866120bb565b905081810360608301526126df81856120bb565b905081810360808301526126f381846125c2565b9050969550505050505056fea2646970667358221220f0d5543588fa63d47ebb0c0bda9bae898c0262c404e37fc41f11a06306c2ac9764736f6c634300081c003368747470733a2f2f6578616d706c652e636f6d2f6170692f6974656d2f7b69647d2e6a736f6e",
  "linkReferences": {},
  "deployedLinkReferences": {}
}