{
  "_format": "hh-sol-artifact-1",
  "contractName": "DynamicNFT",
  "sourceName": "contracts/DynamicNFT.sol",
  "abi": [
    {
      "inputs": [],
      "stateMutability": "nonpayable",
      "type": "constructor"
    },
    {
      "inputs": [
        {
          "internalType": "address",
          "name": "sender",
          "type": "address"
        },
        {
          "internalType": "uint256",
          "name": "balance",
          "type": "uint256"
        },
        {
          "internalType": "uint256",
          "name": "needed",
          "type": "uint256"
        },
        {
          "internalType": "uint256",
          "name": "tokenId",
          "type": "uint256"
        }
      ],
      "name": "ERC1155InsufficientBalance",
      "type": "error"
    },
    {
      "inputs": [
        {
          "internalType": "address",
          "name": "approver",
          "type": "address"
        }
      ],
      "name": "ERC1155InvalidApprover",
      "type": "error"
    },
    {
      "inputs": [
        {
          "internalType": "uint256",
          "name": "idsLength",
          "type": "uint256"
        },
        {
          "internalType": "uint256",
          "name": "valuesLength",
          "type": "uint256"
        }
      ],
      "name": "ERC1155InvalidArrayLength",
      "type": "error"
    },
    {
      "inputs": [
        {
          "internalType": "address",
          "name": "operator",
          "type": "address"
        }
      ],
      "name": "ERC1155InvalidOperator",
      "type": "error"
    },
    {
      "inputs": [
        {
          "internalType": "address",
          "name": "receiver",
          "type": "address"
        }
      ],
      "name": "ERC1155InvalidReceiver",
      "type": "error"
    },
    {
      "inputs": [
        {
          "internalType": "address",
          "name": "sender",
          "type": "address"
        }
      ],
      "name": "ERC1155InvalidSender",
      "type": "error"
    },
    {
      "inputs": [
        {
          "internalType": "address",
          "name": "operator",
          "type": "address"
        },
        {
          "internalType": "address",
          "name": "owner",
          "type": "address"
        }
      ],
      "name": "ERC1155MissingApprovalForAll",
      "type": "error"
    },
    {
      "inputs": [
        {
          "internalType": "address",
          "name": "owner",
          "type": "address"
        }
      ],
      "name": "OwnableInvalidOwner",
      "type": "error"
    },
    {
      "inputs": [
        {
          "internalType": "address",
          "name": "account",
          "type": "address"
        }
      ],
      "name": "OwnableUnauthorizedAccount",
      "type": "error"
    },
    {
      "anonymous": false,
      "inputs": [
        {
          "indexed": true,
          "internalType": "address",
          "name": "account",
          "type": "address"
        },
        {
          "indexed": true,
          "internalType": "address",
          "name": "operator",
          "type": "address"
        },
        {
          "indexed": false,
          "internalType": "bool",
          "name": "approved",
          "type": "bool"
        }
      ],
      "name": "ApprovalForAll",
      "type": "event"
    },
    {
      "anonymous": false,
      "inputs": [
        {
          "indexed": true,
          "internalType": "address",
          "name": "previousOwner",
          "type": "address"
        },
        {
          "indexed": true,
          "internalType": "address",
          "name": "newOwner",
          "type": "address"
        }
      ],
      "name": "OwnershipTransferred",
      "type": "event"
    },
    {
      "anonymous": false,
      "inputs": [
        {
          "indexed": true,
          "internalType": "uint256",
          "name": "tokenId",
          "type": "uint256"
        },
        {
          "indexed": true,
          "internalType": "address",
          "name": "owner",
          "type": "address"
        },
        {
          "indexed": false,
          "internalType": "uint256",
          "name": "maxScore",
          "type": "uint256"
        },
        {
          "indexed": false,
          "internalType": "uint256",
          "name": "stateId",
          "type": "uint256"
        },
        {
          "indexed": false,
          "internalType": "uint256",
          "name": "totalPlayTime",
          "type": "uint256"
        }
      ],
      "name": "StatsUpdated",
      "type": "event"
    },
    {
      "anonymous": false,
      "inputs": [
        {
          "indexed": true,
          "internalType": "address",
          "name": "operator",
          "type": "address"
        },
        {
          "indexed": true,
          "internalType": "address",
          "name": "from",
          "type": "address"
        },
        {
          "indexed": true,
          "internalType": "address",
          "name": "to",
          "type": "address"
        },
        {
          "indexed": false,
          "internalType": "uint256[]",
          "name": "ids",
          "type": "uint256[]"
        },
        {
          "indexed": false,
          "internalType": "uint256[]",
          "name": "values",
          "type": "uint256[]"
        }
      ],
      "name": "TransferBatch",
      "type": "event"
    },
    {
      "anonymous": false,
      "inputs": [
        {
          "indexed": true,
          "internalType": "address",
          "name": "operator",
          "type": "address"
        },
        {
          "indexed": true,
          "internalType": "address",
          "name": "from",
          "type": "address"
        },
        {
          "indexed": true,
          "internalType": "address",
          "name": "to",
          "type": "address"
        },
        {
          "indexed": false,
          "internalType": "uint256",
          "name": "id",
          "type": "uint256"
        },
        {
          "indexed": false,
          "internalType": "uint256",
          "name": "value",
          "type": "uint256"
        }
      ],
      "name": "TransferSingle",
      "type": "event"
    },
    {
      "anonymous": false,
      "inputs": [
        {
          "indexed": false,
          "internalType": "string",
          "name": "value",
          "type": "string"
        },
        {
          "indexed": true,
          "internalType": "uint256",
          "name": "id",
          "type": "uint256"
        }
      ],
      "name": "URI",
      "type": "event"
    },
    {
      "inputs": [
        {
          "internalType": "address",
          "name": "account",
          "type": "address"
        },
        {
          "internalType": "uint256",
          "name": "id",
          "type": "uint256"
        }
      ],
      "name": "balanceOf",
      "outputs": [
        {
          "internalType": "uint256",
          "name": "",
          "type": "uint256"
        }
      ],
      "stateMutability": "view",
      "type": "function"
    },
    {
      "inputs": [
        {
          "internalType": "address[]",
          "name": "accounts",
          "type": "address[]"
        },
        {
          "internalType": "uint256[]",
          "name": "ids",
          "type": "uint256[]"
        }
      ],
      "name": "balanceOfBatch",
      "outputs": [
        {
          "internalType": "uint256[]",
          "name": "",
          "type": "uint256[]"
        }
      ],
      "stateMutability": "view",
      "type": "function"
    },
    {
      "inputs": [
        {
          "internalType": "uint256",
          "name": "",
          "type": "uint256"
        }
      ],
      "name": "dnftStats",
      "outputs": [
        {
          "internalType": "uint256",
          "name": "maxScore",
          "type": "uint256"
        },
        {
          "internalType": "uint256",
          "name": "stateId",
          "type": "uint256"
        },
        {
          "internalType": "uint256",
          "name": "playTime",
          "type": "uint256"
        }
      ],
      "stateMutability": "view",
      "type": "function"
    },
    {
      "inputs": [
        {
          "internalType": "uint256",
          "name": "tokenId",
          "type": "uint256"
        }
      ],
      "name": "getStats",
      "outputs": [
        {
          "components": [
            {
              "internalType": "uint256",
              "name": "maxScore",
              "type": "uint256"
            },
            {
              "internalType": "uint256",
              "name": "stateId",
              "type": "uint256"
            },
            {
              "internalType": "uint256",
              "name": "playTime",
              "type": "uint256"
            }
          ],
          "internalType": "struct DynamicNFT.PlayerStats",
          "name": "",
          "type": "tuple"
        }
      ],
      "stateMutability": "view",
      "type": "function"
    },
    {
      "inputs": [
        {
          "internalType": "address",
          "name": "account",
          "type": "address"
        },
        {
          "internalType": "address",
          "name": "operator",
          "type": "address"
        }
      ],
      "name": "isApprovedForAll",
      "outputs": [
        {
          "internalType": "bool",
          "name": "",
          "type": "bool"
        }
      ],
      "stateMutability": "view",
      "type": "function"
    },
    {
      "inputs": [
        {
          "internalType": "address",
          "name": "to",
          "type": "address"
        },
        {
          "internalType": "uint256",
          "name": "score",
          "type": "uint256"
        }
      ],
      "name": "mint",
      "outputs": [
        {
          "internalType": "uint256",
          "name": "",
          "type": "uint256"
        }
      ],
      "stateMutability": "nonpayable",
      "type": "function"
    },
    {
      "inputs": [],
      "name": "nextTokenId",
      "outputs": [
        {
          "internalType": "uint256",
          "name": "",
          "type": "uint256"
        }
      ],
      "stateMutability": "view",
      "type": "function"
    },
    {
      "inputs": [],
      "name": "owner",
      "outputs": [
        {
          "internalType": "address",
          "name": "",
          "type": "address"
        }
      ],
      "stateMutability": "view",
      "type": "function"
    },
    {
      "inputs": [],
      "name": "renounceOwnership",
      "outputs": [],
      "stateMutability": "nonpayable",
      "type": "function"
    },
    {
      "inputs": [
        {
          "internalType": "address",
          "name": "from",
          "type": "address"
        },
        {
          "internalType": "address",
          "name": "to",
          "type": "address"
        },
        {
          "internalType": "uint256[]",
          "name": "ids",
          "type": "uint256[]"
        },
        {
          "internalType": "uint256[]",
          "name": "values",
          "type": "uint256[]"
        },
        {
          "internalType": "bytes",
          "name": "data",
          "type": "bytes"
        }
      ],
      "name": "safeBatchTransferFrom",
      "outputs": [],
      "stateMutability": "nonpayable",
      "type": "function"
    },
    {
      "inputs": [
        {
          "internalType": "address",
          "name": "from",
          "type": "address"
        },
        {
          "internalType": "address",
          "name": "to",
          "type": "address"
        },
        {
          "internalType": "uint256",
          "name": "id",
          "type": "uint256"
        },
        {
          "internalType": "uint256",
          "name": "value",
          "type": "uint256"
        },
        {
          "internalType": "bytes",
          "name": "data",
          "type": "bytes"
        }
      ],
      "name": "safeTransferFrom",
      "outputs": [],
      "stateMutability": "nonpayable",
      "type": "function"
    },
    {
      "inputs": [
        {
          "internalType": "address",
          "name": "operator",
          "type": "address"
        },
        {
          "internalType": "bool",
          "name": "approved",
          "type": "bool"
        }
      ],
      "name": "setApprovalForAll",
      "outputs": [],
      "stateMutability": "nonpayable",
      "type": "function"
    },
    {
      "inputs": [
        {
          "internalType": "uint256",
          "name": "stateId",
          "type": "uint256"
        },
        {
          "internalType": "string",
          "name": "fullUri",
          "type": "string"
        }
      ],
      "name": "setStateFullUri",
      "outputs": [],
      "stateMutability": "nonpayable",
      "type": "function"
    },
    {
      "inputs": [
        {
          "internalType": "uint256",
          "name": "",
          "type": "uint256"
        }
      ],
      "name": "stateFullUris",
      "outputs": [
        {
          "internalType": "string",
          "name": "",
          "type": "string"
        }
      ],
      "stateMutability": "view",
      "type": "function"
    },
    {
      "inputs": [
        {
          "internalType": "bytes4",
          "name": "interfaceId",
          "type": "bytes4"
        }
      ],
      "name": "supportsInterface",
      "outputs": [
        {
          "internalType": "bool",
          "name": "",
          "type": "bool"
        }
      ],
      "stateMutability": "view",
      "type": "function"
    },
    {
      "inputs": [
        {
          "internalType": "address",
          "name": "newOwner",
          "type": "address"
        }
      ],
      "name": "transferOwnership",
      "outputs": [],
      "stateMutability": "nonpayable",
      "type": "function"
    },
    {
      "inputs": [
        {
          "internalType": "uint256",
          "name": "tokenId",
          "type": "uint256"
        },
        {
          "internalType": "uint256",
          "name": "score",
          "type": "uint256"
        },
        {
          "internalType": "uint256",
          "name": "newState",
          "type": "uint256"
        },
        {
          "internalType": "uint256",
          "name": "playTime",
          "type": "uint256"
        }
      ],
      "name": "updateStats",
      "outputs": [],
      "stateMutability": "nonpayable",
      "type": "function"
    },
    {
      "inputs": [
        {
          "internalType": "uint256",
          "name": "tokenId",
          "type": "uint256"
        },
        {
          "internalType": "uint256",
          "name": "newStateId",
          "type": "uint256"
        }
      ],
      "name": "updateVisualState",
      "outputs": [],
      "stateMutability": "nonpayable",
      "type": "function"
    },
    {
      "inputs": [
        {
          "internalType": "uint256",
          "name": "tokenId",
          "type": "uint256"
        }
      ],
      "name": "uri",
      "outputs": [
        {
          "internalType": "string",
          "name": "",
          "type": "string"
        }
      ],
      "stateMutability": "view",
      "type": "function"
    }
  ],
  "bytecode": "0x608060405234801561001057600080fd5b5033604051806020016040528060008152506100318161016760201b60201c565b50600073ffffffffffffffffffffffffffffffffffffffff168173ffffffffffffffffffffffffffffffffffffffff16036100a45760006040517f1e4fbdf700000000000000000000000000000000000000000000000000000000815260040161009b9190610281565b60405180910390fd5b6100b38161017a60201b60201c565b506040518060a001604052806078815260200161360360789139600560006001815260200190815260200160002090816100ed91906104ec565b506040518060a001604052806078815260200161367b607891396005600060028152602001908152602001600020908161012791906104ec565b506040518060a00160405280607881526020016136f3607891396005600060038152602001908152602001600020908161016191906104ec565b506105be565b806002908161017691906104ec565b5050565b6000600360009054906101000a900473ffffffffffffffffffffffffffffffffffffffff16905081600360006101000a81548173ffffffffffffffffffffffffffffffffffffffff021916908373ffffffffffffffffffffffffffffffffffffffff1602179055508173ffffffffffffffffffffffffffffffffffffffff168173ffffffffffffffffffffffffffffffffffffffff167f8be0079c531659141344cd1fd0a4f28419497f9722a3daafe3b4186f6b6457e060405160405180910390a35050565b600073ffffffffffffffffffffffffffffffffffffffff82169050919050565b600061026b82610240565b9050919050565b61027b81610260565b82525050565b60006020820190506102966000830184610272565b92915050565b600081519050919050565b7f4e487b7100000000000000000000000000000000000000000000000000000000600052604160045260246000fd5b7f4e487b7100000000000000000000000000000000000000000000000000000000600052602260045260246000fd5b6000600282049050600182168061031d57607f821691505b6020821081036103305761032f6102d6565b5b50919050565b60008190508160005260206000209050919050565b60006020601f8301049050919050565b600082821b905092915050565b6000600883026103987fffffffffffffffffffffffffffffffffffffffffffffffffffffffffffffffff8261035b565b6103a2868361035b565b95508019841693508086168417925050509392505050565b6000819050919050565b6000819050919050565b60006103e96103e46103df846103ba565b6103c4565b6103ba565b9050919050565b6000819050919050565b610403836103ce565b61041761040f826103f0565b848454610368565b825550505050565b600090565b61042c61041f565b6104378184846103fa565b505050565b5b8181101561045b57610450600082610424565b60018101905061043d565b5050565b601f8211156104a05761047181610336565b61047a8461034b565b81016020851015610489578190505b61049d6104958561034b565b83018261043c565b50505b505050565b600082821c905092915050565b60006104c3600019846008026104a5565b1980831691505092915050565b60006104dc83836104b2565b9150826002028217905092915050565b6104f58261029c565b67ffffffffffffffff81111561050e5761050d6102a7565b5b6105188254610305565b61052382828561045f565b600060209050601f8311600181146105565760008415610544578287015190505b61054e85826104d0565b8655506105b6565b601f19841661056486610336565b60005b8281101561058c57848901518255600182019150602085019450602081019050610567565b868310156105a957848901516105a5601f8916826104b2565b8355505b6001600288020188555050505b505050505050565b613036806105cd6000396000f3fe608060405234801561001057600080fd5b50600436106101205760003560e01c80634e1273f4116100ad578063a22cb46511610071578063a22cb4651461032d578063df01136714610349578063e985e9c514610379578063f242432a146103a9578063f2fde38b146103c557610120565b80634e1273f414610287578063715018a6146102b757806375794a3c146102c15780637b303965146102df5780638da5cb5b1461030f57610120565b80631c335e2f116100f45780631c335e2f146101e757806326dbbcc3146102035780632dfb7c2a1461021f5780632eb2c2d61461023b57806340c10f191461025757610120565b8062fdd58e1461012557806301ffc9a7146101555780630e89341c1461018557806316cb4cf5146101b5575b600080fd5b61013f600480360381019061013a9190611e20565b6103e1565b60405161014c9190611e6f565b60405180910390f35b61016f600480360381019061016a9190611ee2565b61043b565b60405161017c9190611f2a565b60405180910390f35b61019f600480360381019061019a9190611f45565b61051d565b6040516101ac9190612002565b60405180910390f35b6101cf60048036038101906101ca9190611f45565b610651565b6040516101de93929190612024565b60405180910390f35b61020160048036038101906101fc9190612190565b61067b565b005b61021d600480360381019061021891906121ec565b6106a8565b005b61023960048036038101906102349190612253565b61089b565b005b610255600480360381019061025091906123fc565b610a23565b005b610271600480360381019061026c9190611e20565b610acb565b60405161027e9190611e6f565b60405180910390f35b6102a1600480360381019061029c919061258e565b610b62565b6040516102ae91906126c4565b60405180910390f35b6102bf610c6b565b005b6102c9610c7f565b6040516102d69190611e6f565b60405180910390f35b6102f960048036038101906102f49190611f45565b610c85565b6040516103069190612728565b60405180910390f35b610317610cd0565b6040516103249190612752565b60405180910390f35b61034760048036038101906103429190612799565b610cfa565b005b610363600480360381019061035e9190611f45565b610d10565b6040516103709190612002565b60405180910390f35b610393600480360381019061038e91906127d9565b610db0565b6040516103a09190611f2a565b60405180910390f35b6103c360048036038101906103be9190612819565b610e44565b005b6103df60048036038101906103da91906128b0565b610eec565b005b600080600083815260200190815260200160002060008473ffffffffffffffffffffffffffffffffffffffff1673ffffffffffffffffffffffffffffffffffffffff16815260200190815260200160002054905092915050565b60007fd9b67a26000000000000000000000000000000000000000000000000000000007bffffffffffffffffffffffffffffffffffffffffffffffffffffffff1916827bffffffffffffffffffffffffffffffffffffffffffffffffffffffff1916148061050657507f0e89341c000000000000000000000000000000000000000000000000000000007bffffffffffffffffffffffffffffffffffffffffffffffffffffffff1916827bffffffffffffffffffffffffffffffffffffffffffffffffffffffff1916145b80610516575061051582610f72565b5b9050919050565b6060600060046000848152602001908152602001600020604051806060016040529081600082015481526020016001820154815260200160028201548152505090506000600560008360200151815260200190815260200160002080546105839061290c565b80601f01602080910402602001604051908101604052809291908181526020018280546105af9061290c565b80156105fc5780601f106105d1576101008083540402835291602001916105fc565b820191906000526020600020905b8154815290600101906020018083116105df57829003601f168201915b505050505090506000815111610647576040517f08c379a000000000000000000000000000000000000000000000000000000000815260040161063e90612989565b60405180910390fd5b8092505050919050565b60046020528060005260406000206000915090508060000154908060010154908060020154905083565b610683610fdc565b806005600084815260200190815260200160002090816106a39190612b55565b505050565b60006106b433866103e1565b116106f4576040517f08c379a00000000000000000000000000000000000000000000000000000000081526004016106eb90612c73565b60405180910390fd5b60006004600086815260200190815260200160002090508060000154841115610721578381600001819055505b8281600101541461081a5782816001018190555060006005600085815260200190815260200160002080546107559061290c565b80601f01602080910402602001604051908101604052809291908181526020018280546107819061290c565b80156107ce5780601f106107a3576101008083540402835291602001916107ce565b820191906000526020600020905b8154815290600101906020018083116107b157829003601f168201915b5050505050905060008151111561081857857f6bb7ff708619ba0610cba295a58592e0451dee2622938c8755667688daf3529b8260405161080f9190612002565b60405180910390a25b505b8181600201600082825461082e9190612cc2565b925050819055503373ffffffffffffffffffffffffffffffffffffffff16857f5fc71ebad6e6dd7b877691d6c01768232bd850b648b45eece8acd170d27ea52283600001548460010154856002015460405161088c93929190612024565b60405180910390a35050505050565b60006108a733846103e1565b116108e7576040517f08c379a00000000000000000000000000000000000000000000000000000000081526004016108de90612c73565b60405180910390fd5b60006005600083815260200190815260200160002080546109079061290c565b80601f01602080910402602001604051908101604052809291908181526020018280546109339061290c565b80156109805780601f1061095557610100808354040283529160200191610980565b820191906000526020600020905b81548152906001019060200180831161096357829003601f168201915b5050505050905060008151116109cb576040517f08c379a00000000000000000000000000000000000000000000000000000000081526004016109c290612d42565b60405180910390fd5b816004600085815260200190815260200160002060010181905550827f6bb7ff708619ba0610cba295a58592e0451dee2622938c8755667688daf3529b82604051610a169190612002565b60405180910390a2505050565b6000610a2d611063565b90508073ffffffffffffffffffffffffffffffffffffffff168673ffffffffffffffffffffffffffffffffffffffff1614158015610a725750610a708682610db0565b155b15610ab65780866040517fe237d922000000000000000000000000000000000000000000000000000000008152600401610aad929190612d62565b60405180910390fd5b610ac3868686868661106b565b505050505050565b600080600654905060066000815480929190610ae690612d8b565b9190505550604051806060016040528084815260200160018152602001600081525060046000838152602001908152602001600020600082015181600001556020820151816001015560408201518160020155905050610b588482600160405180602001604052806000815250611163565b8091505092915050565b60608151835114610bae57815183516040517f5b059991000000000000000000000000000000000000000000000000000000008152600401610ba5929190612dd3565b60405180910390fd5b6000835167ffffffffffffffff811115610bcb57610bca612065565b5b604051908082528060200260200182016040528015610bf95781602001602082028036833780820191505090505b50905060005b8451811015610c6057610c36610c1e82876111fc90919063ffffffff16565b610c31838761121090919063ffffffff16565b6103e1565b828281518110610c4957610c48612dfc565b5b602002602001018181525050806001019050610bff565b508091505092915050565b610c73610fdc565b610c7d6000611224565b565b60065481565b610c8d611d57565b6004600083815260200190815260200160002060405180606001604052908160008201548152602001600182015481526020016002820154815250509050919050565b6000600360009054906101000a900473ffffffffffffffffffffffffffffffffffffffff16905090565b610d0c610d05611063565b83836112ea565b5050565b60056020528060005260406000206000915090508054610d2f9061290c565b80601f0160208091040260200160405190810160405280929190818152602001828054610d5b9061290c565b8015610da85780601f10610d7d57610100808354040283529160200191610da8565b820191906000526020600020905b815481529060010190602001808311610d8b57829003601f168201915b505050505081565b6000600160008473ffffffffffffffffffffffffffffffffffffffff1673ffffffffffffffffffffffffffffffffffffffff16815260200190815260200160002060008373ffffffffffffffffffffffffffffffffffffffff1673ffffffffffffffffffffffffffffffffffffffff16815260200190815260200160002060009054906101000a900460ff16905092915050565b6000610e4e611063565b90508073ffffffffffffffffffffffffffffffffffffffff168673ffffffffffffffffffffffffffffffffffffffff1614158015610e935750610e918682610db0565b155b15610ed75780866040517fe237d922000000000000000000000000000000000000000000000000000000008152600401610ece929190612d62565b60405180910390fd5b610ee4868686868661145a565b505050505050565b610ef4610fdc565b600073ffffffffffffffffffffffffffffffffffffffff168173ffffffffffffffffffffffffffffffffffffffff1603610f665760006040517f1e4fbdf7000000000000000000000000000000000000000000000000000000008152600401610f5d9190612752565b60405180910390fd5b610f6f81611224565b50565b60007f01ffc9a7000000000000000000000000000000000000000000000000000000007bffffffffffffffffffffffffffffffffffffffffffffffffffffffff1916827bffffffffffffffffffffffffffffffffffffffffffffffffffffffff1916149050919050565b610fe4611063565b73ffffffffffffffffffffffffffffffffffffffff16611002610cd0565b73ffffffffffffffffffffffffffffffffffffffff161461106157611025611063565b6040517f118cdaa70000000000000000000000000000000000000000000000000000000081526004016110589190612752565b60405180910390fd5b565b600033905090565b600073ffffffffffffffffffffffffffffffffffffffff168473ffffffffffffffffffffffffffffffffffffffff16036110dd5760006040517f57f447ce0000000000000000000000000000000000000000000000000000000081526004016110d49190612752565b60405180910390fd5b600073ffffffffffffffffffffffffffffffffffffffff168573ffffffffffffffffffffffffffffffffffffffff160361114f5760006040517f01a835140000000000000000000000000000000000000000000000000000000081526004016111469190612752565b60405180910390fd5b61115c8585858585611565565b5050505050565b600073ffffffffffffffffffffffffffffffffffffffff168473ffffffffffffffffffffffffffffffffffffffff16036111d55760006040517f57f447ce0000000000000000000000000000000000000000000000000000000081526004016111cc9190612752565b60405180910390fd5b6000806111e28585611617565b915091506111f4600087848487611565565b505050505050565b600060208202602084010151905092915050565b600060208202602084010151905092915050565b6000600360009054906101000a900473ffffffffffffffffffffffffffffffffffffffff16905081600360006101000a81548173ffffffffffffffffffffffffffffffffffffffff021916908373ffffffffffffffffffffffffffffffffffffffff1602179055508173ffffffffffffffffffffffffffffffffffffffff168173ffffffffffffffffffffffffffffffffffffffff167f8be0079c531659141344cd1fd0a4f28419497f9722a3daafe3b4186f6b6457e060405160405180910390a35050565b600073ffffffffffffffffffffffffffffffffffffffff168273ffffffffffffffffffffffffffffffffffffffff160361135c5760006040517fced3e1000000000000000000000000000000000000000000000000000000000081526004016113539190612752565b60405180910390fd5b80600160008573ffffffffffffffffffffffffffffffffffffffff1673ffffffffffffffffffffffffffffffffffffffff16815260200190815260200160002060008473ffffffffffffffffffffffffffffffffffffffff1673ffffffffffffffffffffffffffffffffffffffff16815260200190815260200160002060006101000a81548160ff0219169083151502179055508173ffffffffffffffffffffffffffffffffffffffff168373ffffffffffffffffffffffffffffffffffffffff167f17307eab39ab6107e8899845ad3d59bd9653f200f220920489ca2b5937696c318360405161144d9190611f2a565b60405180910390a3505050565b600073ffffffffffffffffffffffffffffffffffffffff168473ffffffffffffffffffffffffffffffffffffffff16036114cc5760006040517f57f447ce0000000000000000000000000000000000000000000000000000000081526004016114c39190612752565b60405180910390fd5b600073ffffffffffffffffffffffffffffffffffffffff168573ffffffffffffffffffffffffffffffffffffffff160361153e5760006040517f01a835140000000000000000000000000000000000000000000000000000000081526004016115359190612752565b60405180910390fd5b60008061154b8585611617565b9150915061155c8787848487611565565b50505050505050565b61157185858585611647565b600073ffffffffffffffffffffffffffffffffffffffff168473ffffffffffffffffffffffffffffffffffffffff16146116105760006115af611063565b905060018451036115ff5760006115d060008661121090919063ffffffff16565b905060006115e860008661121090919063ffffffff16565b90506115f88389898585896119ef565b505061160e565b61160d818787878787611ba3565b5b505b5050505050565b60608060405191506001825283602083015260408201905060018152826020820152604081016040529250929050565b805182511461169157815181516040517f5b059991000000000000000000000000000000000000000000000000000000008152600401611688929190612dd3565b60405180910390fd5b600061169b611063565b905060005b83518110156118aa5760006116be828661121090919063ffffffff16565b905060006116d5838661121090919063ffffffff16565b9050600073ffffffffffffffffffffffffffffffffffffffff168873ffffffffffffffffffffffffffffffffffffffff161461180257600080600084815260200190815260200160002060008a73ffffffffffffffffffffffffffffffffffffffff1673ffffffffffffffffffffffffffffffffffffffff168152602001908152602001600020549050818110156117aa57888183856040517f03dee4c50000000000000000000000000000000000000000000000000000000081526004016117a19493929190612e2b565b60405180910390fd5b81810360008085815260200190815260200160002060008b73ffffffffffffffffffffffffffffffffffffffff1673ffffffffffffffffffffffffffffffffffffffff16815260200190815260200160002081905550505b600073ffffffffffffffffffffffffffffffffffffffff168773ffffffffffffffffffffffffffffffffffffffff161461189d578060008084815260200190815260200160002060008973ffffffffffffffffffffffffffffffffffffffff1673ffffffffffffffffffffffffffffffffffffffff16815260200190815260200160002060008282546118959190612cc2565b925050819055505b50508060010190506116a0565b5060018351036119695760006118ca60008561121090919063ffffffff16565b905060006118e260008561121090919063ffffffff16565b90508573ffffffffffffffffffffffffffffffffffffffff168773ffffffffffffffffffffffffffffffffffffffff168473ffffffffffffffffffffffffffffffffffffffff167fc3d58168c5ae7397731d063d5bbf3d657854427343f4c083240f7aacaa2d0f62858560405161195a929190612dd3565b60405180910390a450506119e8565b8373ffffffffffffffffffffffffffffffffffffffff168573ffffffffffffffffffffffffffffffffffffffff168273ffffffffffffffffffffffffffffffffffffffff167f4a39dc06d4c0dbc64b70af90fd698a233a518aa5d07e595d983b8c0526c8f7fb86866040516119df929190612e70565b60405180910390a45b5050505050565b60008473ffffffffffffffffffffffffffffffffffffffff163b1115611b9b578373ffffffffffffffffffffffffffffffffffffffff1663f23a6e6187878686866040518663ffffffff1660e01b8152600401611a50959493929190612efc565b6020604051808303816000875af1925050508015611a8c57506040513d601f19601f82011682018060405250810190611a899190612f6b565b60015b611b10573d8060008114611abc576040519150601f19603f3d011682016040523d82523d6000602084013e611ac1565b606091505b506000815103611b0857846040517f57f447ce000000000000000000000000000000000000000000000000000000008152600401611aff9190612752565b60405180910390fd5b805181602001fd5b63f23a6e6160e01b7bffffffffffffffffffffffffffffffffffffffffffffffffffffffff1916817bffffffffffffffffffffffffffffffffffffffffffffffffffffffff191614611b9957846040517f57f447ce000000000000000000000000000000000000000000000000000000008152600401611b909190612752565b60405180910390fd5b505b505050505050565b60008473ffffffffffffffffffffffffffffffffffffffff163b1115611d4f578373ffffffffffffffffffffffffffffffffffffffff1663bc197c8187878686866040518663ffffffff1660e01b8152600401611c04959493929190612f98565b6020604051808303816000875af1925050508015611c4057506040513d601f19601f82011682018060405250810190611c3d9190612f6b565b60015b611cc4573d8060008114611c70576040519150601f19603f3d011682016040523d82523d6000602084013e611c75565b606091505b506000815103611cbc57846040517f57f447ce000000000000000000000000000000000000000000000000000000008152600401611cb39190612752565b60405180910390fd5b805181602001fd5b63bc197c8160e01b7bffffffffffffffffffffffffffffffffffffffffffffffffffffffff1916817bffffffffffffffffffffffffffffffffffffffffffffffffffffffff191614611d4d57846040517f57f447ce000000000000000000000000000000000000000000000000000000008152600401611d449190612752565b60405180910390fd5b505b505050505050565b60405180606001604052806000815260200160008152602001600081525090565b6000604051905090565b600080fd5b600080fd5b600073ffffffffffffffffffffffffffffffffffffffff82169050919050565b6000611db782611d8c565b9050919050565b611dc781611dac565b8114611dd257600080fd5b50565b600081359050611de481611dbe565b92915050565b6000819050919050565b611dfd81611dea565b8114611e0857600080fd5b50565b600081359050611e1a81611df4565b92915050565b60008060408385031215611e3757611e36611d82565b5b6000611e4585828601611dd5565b9250506020611e5685828601611e0b565b9150509250929050565b611e6981611dea565b82525050565b6000602082019050611e846000830184611e60565b92915050565b60007fffffffff0000000000000000000000000000000000000000000000000000000082169050919050565b611ebf81611e8a565b8114611eca57600080fd5b50565b600081359050611edc81611eb6565b92915050565b600060208284031215611ef857611ef7611d82565b5b6000611f0684828501611ecd565b91505092915050565b60008115159050919050565b611f2481611f0f565b82525050565b6000602082019050611f3f6000830184611f1b565b92915050565b600060208284031215611f5b57611f5a611d82565b5b6000611f6984828501611e0b565b91505092915050565b600081519050919050565b600082825260208201905092915050565b60005b83811015611fac578082015181840152602081019050611f91565b60008484015250505050565b6000601f19601f8301169050919050565b6000611fd482611f72565b611fde8185611f7d565b9350611fee818560208601611f8e565b611ff781611fb8565b840191505092915050565b6000602082019050818103600083015261201c8184611fc9565b905092915050565b60006060820190506120396000830186611e60565b6120466020830185611e60565b6120536040830184611e60565b949350505050565b600080fd5b600080fd5b7f4e487b7100000000000000000000000000000000000000000000000000000000600052604160045260246000fd5b61209d82611fb8565b810181811067ffffffffffffffff821117156120bc576120bb612065565b5b80604052505050565b60006120cf611d78565b90506120db8282612094565b919050565b600067ffffffffffffffff8211156120fb576120fa612065565b5b61210482611fb8565b9050602081019050919050565b82818337600083830152505050565b600061213361212e846120e0565b6120c5565b90508281526020810184848401111561214f5761214e612060565b5b61215a848285612111565b509392505050565b600082601f8301126121775761217661205b565b5b8135612187848260208601612120565b91505092915050565b600080604083850312156121a7576121a6611d82565b5b60006121b585828601611e0b565b925050602083013567ffffffffffffffff8111156121d6576121d5611d87565b5b6121e285828601612162565b9150509250929050565b6000806000806080858703121561220657612205611d82565b5b600061221487828801611e0b565b945050602061222587828801611e0b565b935050604061223687828801611e0b565b925050606061224787828801611e0b565b91505092959194509250565b6000806040838503121561226a57612269611d82565b5b600061227885828601611e0b565b925050602061228985828601611e0b565b9150509250929050565b600067ffffffffffffffff8211156122ae576122ad612065565b5b602082029050602081019050919050565b600080fd5b60006122d76122d284612293565b6120c5565b905080838252602082019050602084028301858111156122fa576122f96122bf565b5b835b81811015612323578061230f8882611e0b565b8452602084019350506020810190506122fc565b5050509392505050565b600082601f8301126123425761234161205b565b5b81356123528482602086016122c4565b91505092915050565b600067ffffffffffffffff82111561237657612375612065565b5b61237f82611fb8565b9050602081019050919050565b600061239f61239a8461235b565b6120c5565b9050828152602081018484840111156123bb576123ba612060565b5b6123c6848285612111565b509392505050565b600082601f8301126123e3576123e261205b565b5b81356123f384826020860161238c565b91505092915050565b600080600080600060a0868803121561241857612417611d82565b5b600061242688828901611dd5565b955050602061243788828901611dd5565b945050604086013567ffffffffffffffff81111561245857612457611d87565b5b6124648882890161232d565b935050606086013567ffffffffffffffff81111561248557612484611d87565b5b6124918882890161232d565b925050608086013567ffffffffffffffff8111156124b2576124b1611d87565b5b6124be888289016123ce565b9150509295509295909350565b600067ffffffffffffffff8211156124e6576124e5612065565b5b602082029050602081019050919050565b600061250a612505846124cb565b6120c5565b9050808382526020820190506020840283018581111561252d5761252c6122bf565b5b835b8181101561255657806125428882611dd5565b84526020840193505060208101905061252f565b5050509392505050565b600082601f8301126125755761257461205b565b5b81356125858482602086016124f7565b91505092915050565b600080604083850312156125a5576125a4611d82565b5b600083013567ffffffffffffffff8111156125c3576125c2611d87565b5b6125cf85828601612560565b925050602083013567ffffffffffffffff8111156125f0576125ef611d87565b5b6125fc8582860161232d565b9150509250929050565b600081519050919050565b600082825260208201905092915050565b6000819050602082019050919050565b61263b81611dea565b82525050565b600061264d8383612632565b60208301905092915050565b6000602082019050919050565b600061267182612606565b61267b8185612611565b935061268683612622565b8060005b838110156126b757815161269e8882612641565b97506126a983612659565b92505060018101905061268a565b5085935050505092915050565b600060208201905081810360008301526126de8184612666565b905092915050565b6060820160008201516126fc6000850182612632565b50602082015161270f6020850182612632565b5060408201516127226040850182612632565b50505050565b600060608201905061273d60008301846126e6565b92915050565b61274c81611dac565b82525050565b60006020820190506127676000830184612743565b92915050565b61277681611f0f565b811461278157600080fd5b50565b6000813590506127938161276d565b92915050565b600080604083850312156127b0576127af611d82565b5b60006127be85828601611dd5565b92505060206127cf85828601612784565b9150509250929050565b600080604083850312156127f0576127ef611d82565b5b60006127fe85828601611dd5565b925050602061280f85828601611dd5565b9150509250929050565b600080600080600060a0868803121561283557612834611d82565b5b600061284388828901611dd5565b955050602061285488828901611dd5565b945050604061286588828901611e0b565b935050606061287688828901611e0b565b925050608086013567ffffffffffffffff81111561289757612896611d87565b5b6128a3888289016123ce565b9150509295509295909350565b6000602082840312156128c6576128c5611d82565b5b60006128d484828501611dd5565b91505092915050565b7f4e487b7100000000000000000000000000000000000000000000000000000000600052602260045260246000fd5b6000600282049050600182168061292457607f821691505b602082108103612937576129366128dd565b5b50919050565b7f4d65746164617461206e6f742073657420666f72207468697320737461746500600082015250565b6000612973601f83611f7d565b915061297e8261293d565b602082019050919050565b600060208201905081810360008301526129a281612966565b9050919050565b60008190508160005260206000209050919050565b60006020601f8301049050919050565b600082821b905092915050565b600060088302612a0b7fffffffffffffffffffffffffffffffffffffffffffffffffffffffffffffffff826129ce565b612a1586836129ce565b95508019841693508086168417925050509392505050565b6000819050919050565b6000612a52612a4d612a4884611dea565b612a2d565b611dea565b9050919050565b6000819050919050565b612a6c83612a37565b612a80612a7882612a59565b8484546129db565b825550505050565b600090565b612a95612a88565b612aa0818484612a63565b505050565b5b81811015612ac457612ab9600082612a8d565b600181019050612aa6565b5050565b601f821115612b0957612ada816129a9565b612ae3846129be565b81016020851015612af2578190505b612b06612afe856129be565b830182612aa5565b50505b505050565b600082821c905092915050565b6000612b2c60001984600802612b0e565b1980831691505092915050565b6000612b458383612b1b565b9150826002028217905092915050565b612b5e82611f72565b67ffffffffffffffff811115612b7757612b76612065565b5b612b81825461290c565b612b8c828285612ac8565b600060209050601f831160018114612bbf5760008415612bad578287015190505b612bb78582612b39565b865550612c1f565b601f198416612bcd866129a9565b60005b82811015612bf557848901518255600182019150602085019450602081019050612bd0565b86831015612c125784890151612c0e601f891682612b1b565b8355505b6001600288020188555050505b505050505050565b7f4e6f7420746f6b656e206f776e65720000000000000000000000000000000000600082015250565b6000612c5d600f83611f7d565b9150612c6882612c27565b602082019050919050565b60006020820190508181036000830152612c8c81612c50565b9050919050565b7f4e487b7100000000000000000000000000000000000000000000000000000000600052601160045260246000fd5b6000612ccd82611dea565b9150612cd883611dea565b9250828201905080821115612cf057612cef612c93565b5b92915050565b7f496e76616c696420737461746500000000000000000000000000000000000000600082015250565b6000612d2c600d83611f7d565b9150612d3782612cf6565b602082019050919050565b60006020820190508181036000830152612d5b81612d1f565b9050919050565b6000604082019050612d776000830185612743565b612d846020830184612743565b9392505050565b6000612d9682611dea565b91507fffffffffffffffffffffffffffffffffffffffffffffffffffffffffffffffff8203612dc857612dc7612c93565b5b600182019050919050565b6000604082019050612de86000830185611e60565b612df56020830184611e60565b9392505050565b7f4e487b7100000000000000000000000000000000000000000000000000000000600052603260045260246000fd5b6000608082019050612e406000830187612743565b612e4d6020830186611e60565b612e5a6040830185611e60565b612e676060830184611e60565b95945050505050565b60006040820190508181036000830152612e8a8185612666565b90508181036020830152612e9e8184612666565b90509392505050565b600081519050919050565b600082825260208201905092915050565b6000612ece82612ea7565b612ed88185612eb2565b9350612ee8818560208601611f8e565b612ef181611fb8565b840191505092915050565b600060a082019050612f116000830188612743565b612f1e6020830187612743565b612f2b6040830186611e60565b612f386060830185611e60565b8181036080830152612f4a8184612ec3565b90509695505050505050565b600081519050612f6581611eb6565b92915050565b600060208284031215612f8157612f80611d82565b5b6000612f8f84828501612f56565b91505092915050565b600060a082019050612fad6000830188612743565b612fba6020830187612743565b8181036040830152612fcc8186612666565b90508181036060830152612fe08185612666565b90508181036080830152612ff48184612ec3565b9050969550505050505056fea2646970667358221220e1e98737160f0c5a4eb8d3fcc0b4b779f541188115960f07d3fc6f18e338b3d064736f6c634300081c003368747470733a2f2f707572706c652d696d70726f7665642d686970706f706f74616d75732d3936302e6d7970696e6174612e636c6f75642f697066732f6261666b72656964763570666a6a6d6970703679656b6e6872376a7674616869686f64767437326f737268636632626c74323235327675676d6e6d68747470733a2f2f707572706c652d696d70726f7665642d686970706f706f74616d75732d3936302e6d7970696e6174612e636c6f75642f697066732f6261666b7265696566777875696f3272336473677467786171656467727765346a343262716a3461636f6f666b6236356b6d726f7036346f7a796168747470733a2f2f707572706c652d696d70726f7665642d686970706f706f74616d75732d3936302e6d7970696e6174612e636c6f75642f697066732f6261666b7265696763717966333336706232623466737165796e7737747037626c6370796777746d6d346e647662737175736d6b7a676872646c61",
  "linkReferences": {},
  "deployedLinkReferences": {}
}